{"contracts/GPTMembership.sol":{"GPTMembership":{"abi":[{"inputs":[{"internalType":"string","name":"_name","type":"string"},{"internalType":"string","name":"_symbol","type":"string"}],"stateMutability":"nonpayable","type":"constructor"},{"anonymous":false,"inputs":[{"indexed":true,"internalType":"address","name":"owner","type":"address"},{"indexed":true,"internalType":"address","name":"approved","type":"address"},{"indexed":true,"internalType":"uint256","name":"tokenId","type":"uint256"}],"name":"Approval","type":"event"},{"anonymous":false,"inputs":[{"indexed":true,"internalType":"address","name":"owner","type":"address"},{"indexed":true,"internalType":"address","name":"operator","type":"address"},{"indexed":false,"internalType":"bool","name":"approved","type":"bool"}],"name":"ApprovalForAll","type":"event"},{"anonymous":false,"inputs":[{"indexed":true,"internalType":"address","name":"from","type":"address"},{"indexed":true,"internalType":"address","name":"to","type":"address"},{"indexed":true,"internalType":"uint256","name":"tokenId","type":"uint256"}],"name":"Transfer","type":"event"},{"inputs":[],"name":"MY_CONTRACT","outputs":[{"internalType":"string","name":"","type":"string"}],"stateMutability":"view","type":"function"},{"inputs":[{"internalType":"address","name":"to","type":"address"},{"internalType":"uint256","name":"tokenId","type":"uint256"}],"name":"approve","outputs":[],"stateMutability":"nonpayable","type":"function"},{"inputs":[{"internalType":"address","name":"owner","type":"address"}],"name":"balanceOf","outputs":[{"internalType":"uint256","name":"","type":"uint256"}],"stateMutability":"view","type":"function"},{"inputs":[{"internalType":"uint256","name":"tokenId","type":"uint256"}],"name":"getApproved","outputs":[{"internalType":"address","name":"","type":"address"}],"stateMutability":"view","type":"function"},{"inputs":[{"internalType":"uint256","name":"_membershipId","type":"uint256"}],"name":"getMembership","outputs":[{"components":[{"internalType":"uint256","name":"id","type":"uint256"},{"internalType":"string","name":"name","type":"string"},{"internalType":"uint256","name":"cost","type":"uint256"},{"internalType":"string","name":"date","type":"string"}],"internalType":"struct GPTMembership.Membership","name":"","type":"tuple"}],"stateMutability":"view","type":"function"},{"inputs":[{"internalType":"uint256","name":"_membershipId","type":"uint256"}],"name":"getMembershipsTaken","outputs":[{"internalType":"uint256[]","name":"","type":"uint256[]"}],"stateMutability":"view","type":"function"},{"inputs":[{"internalType":"address","name":"_address","type":"address"}],"name":"getUserMembership","outputs":[{"components":[{"internalType":"uint256","name":"id","type":"uint256"},{"internalType":"uint256","name":"membershipId","type":"uint256"},{"internalType":"address","name":"addressUser","type":"address"},{"internalType":"uint256","name":"cost","type":"uint256"},{"internalType":"string","name":"expireDate","type":"string"}],"internalType":"struct GPTMembership.UserMembership","name":"","type":"tuple"}],"stateMutability":"view","type":"function"},{"inputs":[{"internalType":"uint256","name":"","type":"uint256"},{"internalType":"address","name":"","type":"address"}],"name":"hasBought","outputs":[{"internalType":"bool","name":"","type":"bool"}],"stateMutability":"view","type":"function"},{"inputs":[{"internalType":"address","name":"owner","type":"address"},{"internalType":"address","name":"operator","type":"address"}],"name":"isApprovedForAll","outputs":[{"internalType":"bool","name":"","type":"bool"}],"stateMutability":"view","type":"function"},{"inputs":[{"internalType":"string","name":"_name","type":"string"},{"internalType":"uint256","name":"_cost","type":"uint256"},{"internalType":"string","name":"_date","type":"string"}],"name":"list","outputs":[],"stateMutability":"nonpayable","type":"function"},{"inputs":[{"internalType":"uint256","name":"","type":"uint256"},{"internalType":"uint256","name":"","type":"uint256"}],"name":"membershipTaken","outputs":[{"internalType":"address","name":"","type":"address"}],"stateMutability":"view","type":"function"},{"inputs":[],"name":"membershipTypes","outputs":[{"internalType":"uint256","name":"","type":"uint256"}],"stateMutability":"view","type":"function"},{"inputs":[{"internalType":"uint256","name":"_membershipId","type":"uint256"},{"internalType":"address","name":"_user","type":"address"},{"internalType":"string","name":"_expireDate","type":"string"}],"name":"mint","outputs":[],"stateMutability":"payable","type":"function"},{"inputs":[],"name":"name","outputs":[{"internalType":"string","name":"","type":"string"}],"stateMutability":"view","type":"function"},{"inputs":[],"name":"owner","outputs":[{"internalType":"address","name":"","type":"address"}],"stateMutability":"view","type":"function"},{"inputs":[{"internalType":"uint256","name":"tokenId","type":"uint256"}],"name":"ownerOf","outputs":[{"internalType":"address","name":"","type":"address"}],"stateMutability":"view","type":"function"},{"inputs":[{"internalType":"address","name":"from","type":"address"},{"internalType":"address","name":"to","type":"address"},{"internalType":"uint256","name":"tokenId","type":"uint256"}],"name":"safeTransferFrom","outputs":[],"stateMutability":"nonpayable","type":"function"},{"inputs":[{"internalType":"address","name":"from","type":"address"},{"internalType":"address","name":"to","type":"address"},{"internalType":"uint256","name":"tokenId","type":"uint256"},{"internalType":"bytes","name":"data","type":"bytes"}],"name":"safeTransferFrom","outputs":[],"stateMutability":"nonpayable","type":"function"},{"inputs":[{"internalType":"address","name":"operator","type":"address"},{"internalType":"bool","name":"approved","type":"bool"}],"name":"setApprovalForAll","outputs":[],"stateMutability":"nonpayable","type":"function"},{"inputs":[{"internalType":"bytes4","name":"interfaceId","type":"bytes4"}],"name":"supportsInterface","outputs":[{"internalType":"bool","name":"","type":"bool"}],"stateMutability":"view","type":"function"},{"inputs":[],"name":"symbol","outputs":[{"internalType":"string","name":"","type":"string"}],"stateMutability":"view","type":"function"},{"inputs":[{"internalType":"uint256","name":"tokenId","type":"uint256"}],"name":"tokenURI","outputs":[{"internalType":"string","name":"","type":"string"}],"stateMutability":"view","type":"function"},{"inputs":[],"name":"totalMemberships","outputs":[{"internalType":"uint256","name":"","type":"uint256"}],"stateMutability":"view","type":"function"},{"inputs":[{"internalType":"address","name":"from","type":"address"},{"internalType":"address","name":"to","type":"address"},{"internalType":"uint256","name":"tokenId","type":"uint256"}],"name":"transferFrom","outputs":[],"stateMutability":"nonpayable","type":"function"},{"inputs":[],"name":"withdraw","outputs":[],"stateMutability":"nonpayable","type":"function"}],"evm":{"bytecode":{"linkReferences":{},"object":"60806040526040518060400160405280600d81526020017f50494c4c49204b41525448494b00000000000000000000000000000000000000815250600990816200004a919062000369565b503480156200005857600080fd5b5060405162003fdd38038062003fdd83398181016040528101906200007e9190620005b4565b8181816000908162000091919062000369565b508060019081620000a3919062000369565b50505033600660006101000a81548173ffffffffffffffffffffffffffffffffffffffff021916908373ffffffffffffffffffffffffffffffffffffffff160217905550505062000639565b600081519050919050565b7f4e487b7100000000000000000000000000000000000000000000000000000000600052604160045260246000fd5b7f4e487b7100000000000000000000000000000000000000000000000000000000600052602260045260246000fd5b600060028204905060018216806200017157607f821691505b60208210810362000187576200018662000129565b5b50919050565b60008190508160005260206000209050919050565b60006020601f8301049050919050565b600082821b905092915050565b600060088302620001f17fffffffffffffffffffffffffffffffffffffffffffffffffffffffffffffffff82620001b2565b620001fd8683620001b2565b95508019841693508086168417925050509392505050565b6000819050919050565b6000819050919050565b60006200024a620002446200023e8462000215565b6200021f565b62000215565b9050919050565b6000819050919050565b620002668362000229565b6200027e620002758262000251565b848454620001bf565b825550505050565b600090565b6200029562000286565b620002a28184846200025b565b505050565b5b81811015620002ca57620002be6000826200028b565b600181019050620002a8565b5050565b601f8211156200031957620002e3816200018d565b620002ee84620001a2565b81016020851015620002fe578190505b620003166200030d85620001a2565b830182620002a7565b50505b505050565b600082821c905092915050565b60006200033e600019846008026200031e565b1980831691505092915050565b60006200035983836200032b565b9150826002028217905092915050565b6200037482620000ef565b67ffffffffffffffff81111562000390576200038f620000fa565b5b6200039c825462000158565b620003a9828285620002ce565b600060209050601f831160018114620003e15760008415620003cc578287015190505b620003d885826200034b565b86555062000448565b601f198416620003f1866200018d565b60005b828110156200041b57848901518255600182019150602085019450602081019050620003f4565b868310156200043b578489015162000437601f8916826200032b565b8355505b6001600288020188555050505b505050505050565b6000604051905090565b600080fd5b600080fd5b600080fd5b600080fd5b6000601f19601f8301169050919050565b6200048a826200046e565b810181811067ffffffffffffffff82111715620004ac57620004ab620000fa565b5b80604052505050565b6000620004c162000450565b9050620004cf82826200047f565b919050565b600067ffffffffffffffff821115620004f257620004f1620000fa565b5b620004fd826200046e565b9050602081019050919050565b60005b838110156200052a5780820151818401526020810190506200050d565b60008484015250505050565b60006200054d6200054784620004d4565b620004b5565b9050828152602081018484840111156200056c576200056b62000469565b5b620005798482856200050a565b509392505050565b600082601f83011262000599576200059862000464565b5b8151620005ab84826020860162000536565b91505092915050565b60008060408385031215620005ce57620005cd6200045a565b5b600083015167ffffffffffffffff811115620005ef57620005ee6200045f565b5b620005fd8582860162000581565b925050602083015167ffffffffffffffff8111156200062157620006206200045f565b5b6200062f8582860162000581565b9150509250929050565b61399480620006496000396000f3fe6080604052600436106101665760003560e01c80639485cfed116100d1578063bcd57d041161008a578063d121968411610064578063d121968414610574578063e67e402c146105b1578063e985e9c5146105cd578063f9efde301461060a57610166565b8063bcd57d04146104d1578063c87b56dd146104fa578063cdc461ad1461053757610166565b80639485cfed146103c157806395d89b41146103ec5780639bb11c42146104175780639cb04aef14610442578063a22cb4651461047f578063b88d4fde146104a857610166565b80633ccfd60b116101235780633ccfd60b1461029f5780633d07be7b146102b657806342842e0e146102f35780636352211e1461031c57806370a08231146103595780638da5cb5b1461039657610166565b806301ffc9a71461016b57806306fdde03146101a8578063081812fc146101d3578063095ea7b31461021057806323b872dd1461023957806338fbf2c614610262575b600080fd5b34801561017757600080fd5b50610192600480360381019061018d9190612471565b610635565b60405161019f91906124b9565b60405180910390f35b3480156101b457600080fd5b506101bd610717565b6040516101ca9190612564565b60405180910390f35b3480156101df57600080fd5b506101fa60048036038101906101f591906125bc565b6107a9565b604051610207919061262a565b60405180910390f35b34801561021c57600080fd5b5061023760048036038101906102329190612671565b6107ef565b005b34801561024557600080fd5b50610260600480360381019061025b91906126b1565b610906565b005b34801561026e57600080fd5b50610289600480360381019061028491906125bc565b610966565b60405161029691906127c7565b60405180910390f35b3480156102ab57600080fd5b506102b4610acb565b005b3480156102c257600080fd5b506102dd60048036038101906102d891906127e9565b610bc0565b6040516102ea919061289b565b60405180910390f35b3480156102ff57600080fd5b5061031a600480360381019061031591906126b1565b610d1f565b005b34801561032857600080fd5b50610343600480360381019061033e91906125bc565b610d3f565b604051610350919061262a565b60405180910390f35b34801561036557600080fd5b50610380600480360381019061037b91906127e9565b610dc5565b60405161038d91906128cc565b60405180910390f35b3480156103a257600080fd5b506103ab610e7c565b6040516103b8919061262a565b60405180910390f35b3480156103cd57600080fd5b506103d6610ea2565b6040516103e391906128cc565b60405180910390f35b3480156103f857600080fd5b50610401610ea8565b60405161040e9190612564565b60405180910390f35b34801561042357600080fd5b5061042c610f3a565b60405161043991906128cc565b60405180910390f35b34801561044e57600080fd5b50610469600480360381019061046491906128e7565b610f40565b60405161047691906124b9565b60405180910390f35b34801561048b57600080fd5b506104a660048036038101906104a19190612953565b610f6f565b005b3480156104b457600080fd5b506104cf60048036038101906104ca9190612ac8565b610f85565b005b3480156104dd57600080fd5b506104f860048036038101906104f39190612bec565b610fe7565b005b34801561050657600080fd5b50610521600480360381019061051c91906125bc565b6110d9565b60405161052e9190612564565b60405180910390f35b34801561054357600080fd5b5061055e600480360381019061055991906125bc565b611141565b60405161056b9190612d26565b60405180910390f35b34801561058057600080fd5b5061059b60048036038101906105969190612d48565b6111ac565b6040516105a8919061262a565b60405180910390f35b6105cb60048036038101906105c69190612d88565b6111ee565b005b3480156105d957600080fd5b506105f460048036038101906105ef9190612df7565b6114a8565b60405161060191906124b9565b60405180910390f35b34801561061657600080fd5b5061061f61153c565b60405161062c9190612564565b60405180910390f35b60007f80ac58cd000000000000000000000000000000000000000000000000000000007bffffffffffffffffffffffffffffffffffffffffffffffffffffffff1916827bffffffffffffffffffffffffffffffffffffffffffffffffffffffff1916148061070057507f5b5e139f000000000000000000000000000000000000000000000000000000007bffffffffffffffffffffffffffffffffffffffffffffffffffffffff1916827bffffffffffffffffffffffffffffffffffffffffffffffffffffffff1916145b80610710575061070f826115ca565b5b9050919050565b60606000805461072690612e66565b80601f016020809104026020016040519081016040528092919081815260200182805461075290612e66565b801561079f5780601f106107745761010080835404028352916020019161079f565b820191906000526020600020905b81548152906001019060200180831161078257829003601f168201915b5050505050905090565b60006107b482611634565b6004600083815260200190815260200160002060009054906101000a900473ffffffffffffffffffffffffffffffffffffffff169050919050565b60006107fa82610d3f565b90508073ffffffffffffffffffffffffffffffffffffffff168373ffffffffffffffffffffffffffffffffffffffff160361086a576040517f08c379a000000000000000000000000000000000000000000000000000000000815260040161086190612f09565b60405180910390fd5b8073ffffffffffffffffffffffffffffffffffffffff1661088961167f565b73ffffffffffffffffffffffffffffffffffffffff1614806108b857506108b7816108b261167f565b6114a8565b5b6108f7576040517f08c379a00000000000000000000000000000000000000000000000000000000081526004016108ee90612f9b565b60405180910390fd5b6109018383611687565b505050565b61091761091161167f565b82611740565b610956576040517f08c379a000000000000000000000000000000000000000000000000000000000815260040161094d9061302d565b60405180910390fd5b6109618383836117d5565b505050565b61096e612398565b600b6000838152602001908152602001600020604051806080016040529081600082015481526020016001820180546109a690612e66565b80601f01602080910402602001604051908101604052809291908181526020018280546109d290612e66565b8015610a1f5780601f106109f457610100808354040283529160200191610a1f565b820191906000526020600020905b815481529060010190602001808311610a0257829003601f168201915b5050505050815260200160028201548152602001600382018054610a4290612e66565b80601f0160208091040260200160405190810160405280929190818152602001828054610a6e90612e66565b8015610abb5780601f10610a9057610100808354040283529160200191610abb565b820191906000526020600020905b815481529060010190602001808311610a9e57829003601f168201915b5050505050815250509050919050565b600660009054906101000a900473ffffffffffffffffffffffffffffffffffffffff1673ffffffffffffffffffffffffffffffffffffffff163373ffffffffffffffffffffffffffffffffffffffff1614610b2557600080fd5b6000600660009054906101000a900473ffffffffffffffffffffffffffffffffffffffff1673ffffffffffffffffffffffffffffffffffffffff1647604051610b6d9061307e565b60006040518083038185875af1925050503d8060008114610baa576040519150601f19603f3d011682016040523d82523d6000602084013e610baf565b606091505b5050905080610bbd57600080fd5b50565b610bc86123c0565b600a60008373ffffffffffffffffffffffffffffffffffffffff1673ffffffffffffffffffffffffffffffffffffffff1681526020019081526020016000206040518060a001604052908160008201548152602001600182015481526020016002820160009054906101000a900473ffffffffffffffffffffffffffffffffffffffff1673ffffffffffffffffffffffffffffffffffffffff1673ffffffffffffffffffffffffffffffffffffffff16815260200160038201548152602001600482018054610c9690612e66565b80601f0160208091040260200160405190810160405280929190818152602001828054610cc290612e66565b8015610d0f5780601f10610ce457610100808354040283529160200191610d0f565b820191906000526020600020905b815481529060010190602001808311610cf257829003601f168201915b5050505050815250509050919050565b610d3a83838360405180602001604052806000815250610f85565b505050565b600080610d4b83611ace565b9050600073ffffffffffffffffffffffffffffffffffffffff168173ffffffffffffffffffffffffffffffffffffffff1603610dbc576040517f08c379a0000000000000000000000000000000000000000000000000000000008152600401610db3906130df565b60405180910390fd5b80915050919050565b60008073ffffffffffffffffffffffffffffffffffffffff168273ffffffffffffffffffffffffffffffffffffffff1603610e35576040517f08c379a0000000000000000000000000000000000000000000000000000000008152600401610e2c90613171565b60405180910390fd5b600360008373ffffffffffffffffffffffffffffffffffffffff1673ffffffffffffffffffffffffffffffffffffffff168152602001908152602001600020549050919050565b600660009054906101000a900473ffffffffffffffffffffffffffffffffffffffff1681565b60075481565b606060018054610eb790612e66565b80601f0160208091040260200160405190810160405280929190818152602001828054610ee390612e66565b8015610f305780601f10610f0557610100808354040283529160200191610f30565b820191906000526020600020905b815481529060010190602001808311610f1357829003601f168201915b5050505050905090565b60085481565b600c6020528160005260406000206020528060005260406000206000915091509054906101000a900460ff1681565b610f81610f7a61167f565b8383611b0b565b5050565b610f96610f9061167f565b83611740565b610fd5576040517f08c379a0000000000000000000000000000000000000000000000000000000008152600401610fcc9061302d565b60405180910390fd5b610fe184848484611c77565b50505050565b600660009054906101000a900473ffffffffffffffffffffffffffffffffffffffff1673ffffffffffffffffffffffffffffffffffffffff163373ffffffffffffffffffffffffffffffffffffffff161461104157600080fd5b60076000815480929190611054906131c0565b91905055506040518060800160405280600754815260200184815260200183815260200182815250600b600060075481526020019081526020016000206000820151816000015560208201518160010190816110b091906133b4565b506040820151816002015560608201518160030190816110d091906133b4565b50905050505050565b60606110e482611634565b60006110ee611cd3565b9050600081511161110e5760405180602001604052806000815250611139565b8061111884611cea565b6040516020016111299291906134c2565b6040516020818303038152906040525b915050919050565b6060600e60008381526020019081526020016000208054806020026020016040519081016040528092919081815260200182805480156111a057602002820191906000526020600020905b81548152602001906001019080831161118c575b50505050509050919050565b600d6020528160005260406000206020528060005260406000206000915091509054906101000a900473ffffffffffffffffffffffffffffffffffffffff1681565b600083036111fb57600080fd5b60075483111561120a57600080fd5b600b600084815260200190815260200160002060020154341015611263576040517f08c379a000000000000000000000000000000000000000000000000000000000815260040161125a90613532565b60405180910390fd5b60086000815480929190611276906131c0565b91905055506040518060a0016040528060085481526020018481526020018373ffffffffffffffffffffffffffffffffffffffff168152602001600b600086815260200190815260200160002060020154815260200182815250600a60008473ffffffffffffffffffffffffffffffffffffffff1673ffffffffffffffffffffffffffffffffffffffff168152602001908152602001600020600082015181600001556020820151816001015560408201518160020160006101000a81548173ffffffffffffffffffffffffffffffffffffffff021916908373ffffffffffffffffffffffffffffffffffffffff16021790555060608201518160030155608082015181600401908161138991906133b4565b509050506001600c600085815260200190815260200160002060003373ffffffffffffffffffffffffffffffffffffffff1673ffffffffffffffffffffffffffffffffffffffff16815260200190815260200160002060006101000a81548160ff02191690831515021790555033600d60008581526020019081526020016000206000600854815260200190815260200160002060006101000a81548173ffffffffffffffffffffffffffffffffffffffff021916908373ffffffffffffffffffffffffffffffffffffffff160217905550600e600084815260200190815260200160002060085490806001815401808255809150506001900390600052602060002001600090919091909150556114a333600854611db8565b505050565b6000600560008473ffffffffffffffffffffffffffffffffffffffff1673ffffffffffffffffffffffffffffffffffffffff16815260200190815260200160002060008373ffffffffffffffffffffffffffffffffffffffff1673ffffffffffffffffffffffffffffffffffffffff16815260200190815260200160002060009054906101000a900460ff16905092915050565b6009805461154990612e66565b80601f016020809104026020016040519081016040528092919081815260200182805461157590612e66565b80156115c25780601f10611597576101008083540402835291602001916115c2565b820191906000526020600020905b8154815290600101906020018083116115a557829003601f168201915b505050505081565b60007f01ffc9a7000000000000000000000000000000000000000000000000000000007bffffffffffffffffffffffffffffffffffffffffffffffffffffffff1916827bffffffffffffffffffffffffffffffffffffffffffffffffffffffff1916149050919050565b61163d81611dd6565b61167c576040517f08c379a0000000000000000000000000000000000000000000000000000000008152600401611673906130df565b60405180910390fd5b50565b600033905090565b816004600083815260200190815260200160002060006101000a81548173ffffffffffffffffffffffffffffffffffffffff021916908373ffffffffffffffffffffffffffffffffffffffff160217905550808273ffffffffffffffffffffffffffffffffffffffff166116fa83610d3f565b73ffffffffffffffffffffffffffffffffffffffff167f8c5be1e5ebec7d5bd14f71427d1e84f3dd0314c0f7b2291e5b200ac8c7c3b92560405160405180910390a45050565b60008061174c83610d3f565b90508073ffffffffffffffffffffffffffffffffffffffff168473ffffffffffffffffffffffffffffffffffffffff16148061178e575061178d81856114a8565b5b806117cc57508373ffffffffffffffffffffffffffffffffffffffff166117b4846107a9565b73ffffffffffffffffffffffffffffffffffffffff16145b91505092915050565b8273ffffffffffffffffffffffffffffffffffffffff166117f582610d3f565b73ffffffffffffffffffffffffffffffffffffffff161461184b576040517f08c379a0000000000000000000000000000000000000000000000000000000008152600401611842906135c4565b60405180910390fd5b600073ffffffffffffffffffffffffffffffffffffffff168273ffffffffffffffffffffffffffffffffffffffff16036118ba576040517f08c379a00000000000000000000000000000000000000000000000000000000081526004016118b190613656565b60405180910390fd5b6118c78383836001611e17565b8273ffffffffffffffffffffffffffffffffffffffff166118e782610d3f565b73ffffffffffffffffffffffffffffffffffffffff161461193d576040517f08c379a0000000000000000000000000000000000000000000000000000000008152600401611934906135c4565b60405180910390fd5b6004600082815260200190815260200160002060006101000a81549073ffffffffffffffffffffffffffffffffffffffff02191690556001600360008573ffffffffffffffffffffffffffffffffffffffff1673ffffffffffffffffffffffffffffffffffffffff168152602001908152602001600020600082825403925050819055506001600360008473ffffffffffffffffffffffffffffffffffffffff1673ffffffffffffffffffffffffffffffffffffffff16815260200190815260200160002060008282540192505081905550816002600083815260200190815260200160002060006101000a81548173ffffffffffffffffffffffffffffffffffffffff021916908373ffffffffffffffffffffffffffffffffffffffff160217905550808273ffffffffffffffffffffffffffffffffffffffff168473ffffffffffffffffffffffffffffffffffffffff167fddf252ad1be2c89b69c2b068fc378daa952ba7f163c4a11628f55a4df523b3ef60405160405180910390a4611ac98383836001611e1d565b505050565b60006002600083815260200190815260200160002060009054906101000a900473ffffffffffffffffffffffffffffffffffffffff169050919050565b8173ffffffffffffffffffffffffffffffffffffffff168373ffffffffffffffffffffffffffffffffffffffff1603611b79576040517f08c379a0000000000000000000000000000000000000000000000000000000008152600401611b70906136c2565b60405180910390fd5b80600560008573ffffffffffffffffffffffffffffffffffffffff1673ffffffffffffffffffffffffffffffffffffffff16815260200190815260200160002060008473ffffffffffffffffffffffffffffffffffffffff1673ffffffffffffffffffffffffffffffffffffffff16815260200190815260200160002060006101000a81548160ff0219169083151502179055508173ffffffffffffffffffffffffffffffffffffffff168373ffffffffffffffffffffffffffffffffffffffff167f17307eab39ab6107e8899845ad3d59bd9653f200f220920489ca2b5937696c3183604051611c6a91906124b9565b60405180910390a3505050565b611c828484846117d5565b611c8e84848484611e23565b611ccd576040517f08c379a0000000000000000000000000000000000000000000000000000000008152600401611cc490613754565b60405180910390fd5b50505050565b606060405180602001604052806000815250905090565b606060006001611cf984611faa565b01905060008167ffffffffffffffff811115611d1857611d1761299d565b5b6040519080825280601f01601f191660200182016040528015611d4a5781602001600182028036833780820191505090505b509050600082602001820190505b600115611dad578080600190039150507f3031323334353637383961626364656600000000000000000000000000000000600a86061a8153600a8581611da157611da0613774565b5b04945060008503611d58575b819350505050919050565b611dd28282604051806020016040528060008152506120fd565b5050565b60008073ffffffffffffffffffffffffffffffffffffffff16611df883611ace565b73ffffffffffffffffffffffffffffffffffffffff1614159050919050565b50505050565b50505050565b6000611e448473ffffffffffffffffffffffffffffffffffffffff16612158565b15611f9d578373ffffffffffffffffffffffffffffffffffffffff1663150b7a02611e6d61167f565b8786866040518563ffffffff1660e01b8152600401611e8f94939291906137f8565b6020604051808303816000875af1925050508015611ecb57506040513d601f19601f82011682018060405250810190611ec89190613859565b60015b611f4d573d8060008114611efb576040519150601f19603f3d011682016040523d82523d6000602084013e611f00565b606091505b506000815103611f45576040517f08c379a0000000000000000000000000000000000000000000000000000000008152600401611f3c90613754565b60405180910390fd5b805181602001fd5b63150b7a0260e01b7bffffffffffffffffffffffffffffffffffffffffffffffffffffffff1916817bffffffffffffffffffffffffffffffffffffffffffffffffffffffff191614915050611fa2565b600190505b949350505050565b600080600090507a184f03e93ff9f4daa797ed6e38ed64bf6a1f0100000000000000008310612008577a184f03e93ff9f4daa797ed6e38ed64bf6a1f0100000000000000008381611ffe57611ffd613774565b5b0492506040810190505b6d04ee2d6d415b85acef81000000008310612045576d04ee2d6d415b85acef8100000000838161203b5761203a613774565b5b0492506020810190505b662386f26fc10000831061207457662386f26fc10000838161206a57612069613774565b5b0492506010810190505b6305f5e100831061209d576305f5e100838161209357612092613774565b5b0492506008810190505b61271083106120c25761271083816120b8576120b7613774565b5b0492506004810190505b606483106120e557606483816120db576120da613774565b5b0492506002810190505b600a83106120f4576001810190505b80915050919050565b612107838361217b565b6121146000848484611e23565b612153576040517f08c379a000000000000000000000000000000000000000000000000000000000815260040161214a90613754565b60405180910390fd5b505050565b6000808273ffffffffffffffffffffffffffffffffffffffff163b119050919050565b600073ffffffffffffffffffffffffffffffffffffffff168273ffffffffffffffffffffffffffffffffffffffff16036121ea576040517f08c379a00000000000000000000000000000000000000000000000000000000081526004016121e1906138d2565b60405180910390fd5b6121f381611dd6565b15612233576040517f08c379a000000000000000000000000000000000000000000000000000000000815260040161222a9061393e565b60405180910390fd5b612241600083836001611e17565b61224a81611dd6565b1561228a576040517f08c379a00000000000000000000000000000000000000000000000000000000081526004016122819061393e565b60405180910390fd5b6001600360008473ffffffffffffffffffffffffffffffffffffffff1673ffffffffffffffffffffffffffffffffffffffff16815260200190815260200160002060008282540192505081905550816002600083815260200190815260200160002060006101000a81548173ffffffffffffffffffffffffffffffffffffffff021916908373ffffffffffffffffffffffffffffffffffffffff160217905550808273ffffffffffffffffffffffffffffffffffffffff16600073ffffffffffffffffffffffffffffffffffffffff167fddf252ad1be2c89b69c2b068fc378daa952ba7f163c4a11628f55a4df523b3ef60405160405180910390a4612394600083836001611e1d565b5050565b6040518060800160405280600081526020016060815260200160008152602001606081525090565b6040518060a001604052806000815260200160008152602001600073ffffffffffffffffffffffffffffffffffffffff16815260200160008152602001606081525090565b6000604051905090565b600080fd5b600080fd5b60007fffffffff0000000000000000000000000000000000000000000000000000000082169050919050565b61244e81612419565b811461245957600080fd5b50565b60008135905061246b81612445565b92915050565b6000602082840312156124875761248661240f565b5b60006124958482850161245c565b91505092915050565b60008115159050919050565b6124b38161249e565b82525050565b60006020820190506124ce60008301846124aa565b92915050565b600081519050919050565b600082825260208201905092915050565b60005b8381101561250e5780820151818401526020810190506124f3565b60008484015250505050565b6000601f19601f8301169050919050565b6000612536826124d4565b61254081856124df565b93506125508185602086016124f0565b6125598161251a565b840191505092915050565b6000602082019050818103600083015261257e818461252b565b905092915050565b6000819050919050565b61259981612586565b81146125a457600080fd5b50565b6000813590506125b681612590565b92915050565b6000602082840312156125d2576125d161240f565b5b60006125e0848285016125a7565b91505092915050565b600073ffffffffffffffffffffffffffffffffffffffff82169050919050565b6000612614826125e9565b9050919050565b61262481612609565b82525050565b600060208201905061263f600083018461261b565b92915050565b61264e81612609565b811461265957600080fd5b50565b60008135905061266b81612645565b92915050565b600080604083850312156126885761268761240f565b5b60006126968582860161265c565b92505060206126a7858286016125a7565b9150509250929050565b6000806000606084860312156126ca576126c961240f565b5b60006126d88682870161265c565b93505060206126e98682870161265c565b92505060406126fa868287016125a7565b9150509250925092565b61270d81612586565b82525050565b600082825260208201905092915050565b600061272f826124d4565b6127398185612713565b93506127498185602086016124f0565b6127528161251a565b840191505092915050565b60006080830160008301516127756000860182612704565b506020830151848203602086015261278d8282612724565b91505060408301516127a26040860182612704565b50606083015184820360608601526127ba8282612724565b9150508091505092915050565b600060208201905081810360008301526127e1818461275d565b905092915050565b6000602082840312156127ff576127fe61240f565b5b600061280d8482850161265c565b91505092915050565b61281f81612609565b82525050565b600060a08301600083015161283d6000860182612704565b5060208301516128506020860182612704565b5060408301516128636040860182612816565b5060608301516128766060860182612704565b506080830151848203608086015261288e8282612724565b9150508091505092915050565b600060208201905081810360008301526128b58184612825565b905092915050565b6128c681612586565b82525050565b60006020820190506128e160008301846128bd565b92915050565b600080604083850312156128fe576128fd61240f565b5b600061290c858286016125a7565b925050602061291d8582860161265c565b9150509250929050565b6129308161249e565b811461293b57600080fd5b50565b60008135905061294d81612927565b92915050565b6000806040838503121561296a5761296961240f565b5b60006129788582860161265c565b92505060206129898582860161293e565b9150509250929050565b600080fd5b600080fd5b7f4e487b7100000000000000000000000000000000000000000000000000000000600052604160045260246000fd5b6129d58261251a565b810181811067ffffffffffffffff821117156129f4576129f361299d565b5b80604052505050565b6000612a07612405565b9050612a1382826129cc565b919050565b600067ffffffffffffffff821115612a3357612a3261299d565b5b612a3c8261251a565b9050602081019050919050565b82818337600083830152505050565b6000612a6b612a6684612a18565b6129fd565b905082815260208101848484011115612a8757612a86612998565b5b612a92848285612a49565b509392505050565b600082601f830112612aaf57612aae612993565b5b8135612abf848260208601612a58565b91505092915050565b60008060008060808587031215612ae257612ae161240f565b5b6000612af08782880161265c565b9450506020612b018782880161265c565b9350506040612b12878288016125a7565b925050606085013567ffffffffffffffff811115612b3357612b32612414565b5b612b3f87828801612a9a565b91505092959194509250565b600067ffffffffffffffff821115612b6657612b6561299d565b5b612b6f8261251a565b9050602081019050919050565b6000612b8f612b8a84612b4b565b6129fd565b905082815260208101848484011115612bab57612baa612998565b5b612bb6848285612a49565b509392505050565b600082601f830112612bd357612bd2612993565b5b8135612be3848260208601612b7c565b91505092915050565b600080600060608486031215612c0557612c0461240f565b5b600084013567ffffffffffffffff811115612c2357612c22612414565b5b612c2f86828701612bbe565b9350506020612c40868287016125a7565b925050604084013567ffffffffffffffff811115612c6157612c60612414565b5b612c6d86828701612bbe565b9150509250925092565b600081519050919050565b600082825260208201905092915050565b6000819050602082019050919050565b6000612caf8383612704565b60208301905092915050565b6000602082019050919050565b6000612cd382612c77565b612cdd8185612c82565b9350612ce883612c93565b8060005b83811015612d19578151612d008882612ca3565b9750612d0b83612cbb565b925050600181019050612cec565b5085935050505092915050565b60006020820190508181036000830152612d408184612cc8565b905092915050565b60008060408385031215612d5f57612d5e61240f565b5b6000612d6d858286016125a7565b9250506020612d7e858286016125a7565b9150509250929050565b600080600060608486031215612da157612da061240f565b5b6000612daf868287016125a7565b9350506020612dc08682870161265c565b925050604084013567ffffffffffffffff811115612de157612de0612414565b5b612ded86828701612bbe565b9150509250925092565b60008060408385031215612e0e57612e0d61240f565b5b6000612e1c8582860161265c565b9250506020612e2d8582860161265c565b9150509250929050565b7f4e487b7100000000000000000000000000000000000000000000000000000000600052602260045260246000fd5b60006002820490506001821680612e7e57607f821691505b602082108103612e9157612e90612e37565b5b50919050565b7f4552433732313a20617070726f76616c20746f2063757272656e74206f776e6560008201527f7200000000000000000000000000000000000000000000000000000000000000602082015250565b6000612ef36021836124df565b9150612efe82612e97565b604082019050919050565b60006020820190508181036000830152612f2281612ee6565b9050919050565b7f4552433732313a20617070726f76652063616c6c6572206973206e6f7420746f60008201527f6b656e206f776e6572206f7220617070726f76656420666f7220616c6c000000602082015250565b6000612f85603d836124df565b9150612f9082612f29565b604082019050919050565b60006020820190508181036000830152612fb481612f78565b9050919050565b7f4552433732313a2063616c6c6572206973206e6f7420746f6b656e206f776e6560008201527f72206f7220617070726f76656400000000000000000000000000000000000000602082015250565b6000613017602d836124df565b915061302282612fbb565b604082019050919050565b600060208201905081810360008301526130468161300a565b9050919050565b600081905092915050565b50565b600061306860008361304d565b915061307382613058565b600082019050919050565b60006130898261305b565b9150819050919050565b7f4552433732313a20696e76616c696420746f6b656e2049440000000000000000600082015250565b60006130c96018836124df565b91506130d482613093565b602082019050919050565b600060208201905081810360008301526130f8816130bc565b9050919050565b7f4552433732313a2061646472657373207a65726f206973206e6f74206120766160008201527f6c6964206f776e65720000000000000000000000000000000000000000000000602082015250565b600061315b6029836124df565b9150613166826130ff565b604082019050919050565b6000602082019050818103600083015261318a8161314e565b9050919050565b7f4e487b7100000000000000000000000000000000000000000000000000000000600052601160045260246000fd5b60006131cb82612586565b91507fffffffffffffffffffffffffffffffffffffffffffffffffffffffffffffffff82036131fd576131fc613191565b5b600182019050919050565b60008190508160005260206000209050919050565b60006020601f8301049050919050565b600082821b905092915050565b60006008830261326a7fffffffffffffffffffffffffffffffffffffffffffffffffffffffffffffffff8261322d565b613274868361322d565b95508019841693508086168417925050509392505050565b6000819050919050565b60006132b16132ac6132a784612586565b61328c565b612586565b9050919050565b6000819050919050565b6132cb83613296565b6132df6132d7826132b8565b84845461323a565b825550505050565b600090565b6132f46132e7565b6132ff8184846132c2565b505050565b5b81811015613323576133186000826132ec565b600181019050613305565b5050565b601f8211156133685761333981613208565b6133428461321d565b81016020851015613351578190505b61336561335d8561321d565b830182613304565b50505b505050565b600082821c905092915050565b600061338b6000198460080261336d565b1980831691505092915050565b60006133a4838361337a565b9150826002028217905092915050565b6133bd826124d4565b67ffffffffffffffff8111156133d6576133d561299d565b5b6133e08254612e66565b6133eb828285613327565b600060209050601f83116001811461341e576000841561340c578287015190505b6134168582613398565b86555061347e565b601f19841661342c86613208565b60005b828110156134545784890151825560018201915060208501945060208101905061342f565b86831015613471578489015161346d601f89168261337a565b8355505b6001600288020188555050505b505050505050565b600081905092915050565b600061349c826124d4565b6134a68185613486565b93506134b68185602086016124f0565b80840191505092915050565b60006134ce8285613491565b91506134da8284613491565b91508190509392505050565b7f496e737566666963656e742062616c616e636500000000000000000000000000600082015250565b600061351c6013836124df565b9150613527826134e6565b602082019050919050565b6000602082019050818103600083015261354b8161350f565b9050919050565b7f4552433732313a207472616e736665722066726f6d20696e636f72726563742060008201527f6f776e6572000000000000000000000000000000000000000000000000000000602082015250565b60006135ae6025836124df565b91506135b982613552565b604082019050919050565b600060208201905081810360008301526135dd816135a1565b9050919050565b7f4552433732313a207472616e7366657220746f20746865207a65726f2061646460008201527f7265737300000000000000000000000000000000000000000000000000000000602082015250565b60006136406024836124df565b915061364b826135e4565b604082019050919050565b6000602082019050818103600083015261366f81613633565b9050919050565b7f4552433732313a20617070726f766520746f2063616c6c657200000000000000600082015250565b60006136ac6019836124df565b91506136b782613676565b602082019050919050565b600060208201905081810360008301526136db8161369f565b9050919050565b7f4552433732313a207472616e7366657220746f206e6f6e20455243373231526560008201527f63656976657220696d706c656d656e7465720000000000000000000000000000602082015250565b600061373e6032836124df565b9150613749826136e2565b604082019050919050565b6000602082019050818103600083015261376d81613731565b9050919050565b7f4e487b7100000000000000000000000000000000000000000000000000000000600052601260045260246000fd5b600081519050919050565b600082825260208201905092915050565b60006137ca826137a3565b6137d481856137ae565b93506137e48185602086016124f0565b6137ed8161251a565b840191505092915050565b600060808201905061380d600083018761261b565b61381a602083018661261b565b61382760408301856128bd565b818103606083015261383981846137bf565b905095945050505050565b60008151905061385381612445565b92915050565b60006020828403121561386f5761386e61240f565b5b600061387d84828501613844565b91505092915050565b7f4552433732313a206d696e7420746f20746865207a65726f2061646472657373600082015250565b60006138bc6020836124df565b91506138c782613886565b602082019050919050565b600060208201905081810360008301526138eb816138af565b9050919050565b7f4552433732313a20746f6b656e20616c7265616479206d696e74656400000000600082015250565b6000613928601c836124df565b9150613933826138f2565b602082019050919050565b600060208201905081810360008301526139578161391b565b905091905056fea264697066735822122021640cc30247a92686c49803ae6845540a2ec65fb9c5c0712f2e0e40af9e0ace64736f6c63430008110033","opcodes":"PUSH1 0x80 PUSH1 0x40 MSTORE PUSH1 0x40 MLOAD DUP1 PUSH1 0x40 ADD PUSH1 0x40 MSTORE DUP1 PUSH1 0xD DUP2 MSTORE PUSH1 0x20 ADD PUSH32 0x50494C4C49204B41525448494B00000000000000000000000000000000000000 DUP2 MSTORE POP PUSH1 0x9 SWAP1 DUP2 PUSH3 0x4A SWAP2 SWAP1 PUSH3 0x369 JUMP JUMPDEST POP CALLVALUE DUP1 ISZERO PUSH3 0x58 JUMPI PUSH1 0x0 DUP1 REVERT JUMPDEST POP PUSH1 0x40 MLOAD PUSH3 0x3FDD CODESIZE SUB DUP1 PUSH3 0x3FDD DUP4 CODECOPY DUP2 DUP2 ADD PUSH1 0x40 MSTORE DUP2 ADD SWAP1 PUSH3 0x7E SWAP2 SWAP1 PUSH3 0x5B4 JUMP JUMPDEST DUP2 DUP2 DUP2 PUSH1 0x0 SWAP1 DUP2 PUSH3 0x91 SWAP2 SWAP1 PUSH3 0x369 JUMP JUMPDEST POP DUP1 PUSH1 0x1 SWAP1 DUP2 PUSH3 0xA3 SWAP2 SWAP1 PUSH3 0x369 JUMP JUMPDEST POP POP POP CALLER PUSH1 0x6 PUSH1 0x0 PUSH2 0x100 EXP DUP2 SLOAD DUP2 PUSH20 0xFFFFFFFFFFFFFFFFFFFFFFFFFFFFFFFFFFFFFFFF MUL NOT AND SWAP1 DUP4 PUSH20 0xFFFFFFFFFFFFFFFFFFFFFFFFFFFFFFFFFFFFFFFF AND MUL OR SWAP1 SSTORE POP POP POP PUSH3 0x639 JUMP JUMPDEST PUSH1 0x0 DUP2 MLOAD SWAP1 POP SWAP2 SWAP1 POP JUMP JUMPDEST PUSH32 0x4E487B7100000000000000000000000000000000000000000000000000000000 PUSH1 0x0 MSTORE PUSH1 0x41 PUSH1 0x4 MSTORE PUSH1 0x24 PUSH1 0x0 REVERT JUMPDEST PUSH32 0x4E487B7100000000000000000000000000000000000000000000000000000000 PUSH1 0x0 MSTORE PUSH1 0x22 PUSH1 0x4 MSTORE PUSH1 0x24 PUSH1 0x0 REVERT JUMPDEST PUSH1 0x0 PUSH1 0x2 DUP3 DIV SWAP1 POP PUSH1 0x1 DUP3 AND DUP1 PUSH3 0x171 JUMPI PUSH1 0x7F DUP3 AND SWAP2 POP JUMPDEST PUSH1 0x20 DUP3 LT DUP2 SUB PUSH3 0x187 JUMPI PUSH3 0x186 PUSH3 0x129 JUMP JUMPDEST JUMPDEST POP SWAP2 SWAP1 POP JUMP JUMPDEST PUSH1 0x0 DUP2 SWAP1 POP DUP2 PUSH1 0x0 MSTORE PUSH1 0x20 PUSH1 0x0 KECCAK256 SWAP1 POP SWAP2 SWAP1 POP JUMP JUMPDEST PUSH1 0x0 PUSH1 0x20 PUSH1 0x1F DUP4 ADD DIV SWAP1 POP SWAP2 SWAP1 POP JUMP JUMPDEST PUSH1 0x0 DUP3 DUP3 SHL SWAP1 POP SWAP3 SWAP2 POP POP JUMP JUMPDEST PUSH1 0x0 PUSH1 0x8 DUP4 MUL PUSH3 0x1F1 PUSH32 0xFFFFFFFFFFFFFFFFFFFFFFFFFFFFFFFFFFFFFFFFFFFFFFFFFFFFFFFFFFFFFFFF DUP3 PUSH3 0x1B2 JUMP JUMPDEST PUSH3 0x1FD DUP7 DUP4 PUSH3 0x1B2 JUMP JUMPDEST SWAP6 POP DUP1 NOT DUP5 AND SWAP4 POP DUP1 DUP7 AND DUP5 OR SWAP3 POP POP POP SWAP4 SWAP3 POP POP POP JUMP JUMPDEST PUSH1 0x0 DUP2 SWAP1 POP SWAP2 SWAP1 POP JUMP JUMPDEST PUSH1 0x0 DUP2 SWAP1 POP SWAP2 SWAP1 POP JUMP JUMPDEST PUSH1 0x0 PUSH3 0x24A PUSH3 0x244 PUSH3 0x23E DUP5 PUSH3 0x215 JUMP JUMPDEST PUSH3 0x21F JUMP JUMPDEST PUSH3 0x215 JUMP JUMPDEST SWAP1 POP SWAP2 SWAP1 POP JUMP JUMPDEST PUSH1 0x0 DUP2 SWAP1 POP SWAP2 SWAP1 POP JUMP JUMPDEST PUSH3 0x266 DUP4 PUSH3 0x229 JUMP JUMPDEST PUSH3 0x27E PUSH3 0x275 DUP3 PUSH3 0x251 JUMP JUMPDEST DUP5 DUP5 SLOAD PUSH3 0x1BF JUMP JUMPDEST DUP3 SSTORE POP POP POP POP JUMP JUMPDEST PUSH1 0x0 SWAP1 JUMP JUMPDEST PUSH3 0x295 PUSH3 0x286 JUMP JUMPDEST PUSH3 0x2A2 DUP2 DUP5 DUP5 PUSH3 0x25B JUMP JUMPDEST POP POP POP JUMP JUMPDEST JUMPDEST DUP2 DUP2 LT ISZERO PUSH3 0x2CA JUMPI PUSH3 0x2BE PUSH1 0x0 DUP3 PUSH3 0x28B JUMP JUMPDEST PUSH1 0x1 DUP2 ADD SWAP1 POP PUSH3 0x2A8 JUMP JUMPDEST POP POP JUMP JUMPDEST PUSH1 0x1F DUP3 GT ISZERO PUSH3 0x319 JUMPI PUSH3 0x2E3 DUP2 PUSH3 0x18D JUMP JUMPDEST PUSH3 0x2EE DUP5 PUSH3 0x1A2 JUMP JUMPDEST DUP2 ADD PUSH1 0x20 DUP6 LT ISZERO PUSH3 0x2FE JUMPI DUP2 SWAP1 POP JUMPDEST PUSH3 0x316 PUSH3 0x30D DUP6 PUSH3 0x1A2 JUMP JUMPDEST DUP4 ADD DUP3 PUSH3 0x2A7 JUMP JUMPDEST POP POP JUMPDEST POP POP POP JUMP JUMPDEST PUSH1 0x0 DUP3 DUP3 SHR SWAP1 POP SWAP3 SWAP2 POP POP JUMP JUMPDEST PUSH1 0x0 PUSH3 0x33E PUSH1 0x0 NOT DUP5 PUSH1 0x8 MUL PUSH3 0x31E JUMP JUMPDEST NOT DUP1 DUP4 AND SWAP2 POP POP SWAP3 SWAP2 POP POP JUMP JUMPDEST PUSH1 0x0 PUSH3 0x359 DUP4 DUP4 PUSH3 0x32B JUMP JUMPDEST SWAP2 POP DUP3 PUSH1 0x2 MUL DUP3 OR SWAP1 POP SWAP3 SWAP2 POP POP JUMP JUMPDEST PUSH3 0x374 DUP3 PUSH3 0xEF JUMP JUMPDEST PUSH8 0xFFFFFFFFFFFFFFFF DUP2 GT ISZERO PUSH3 0x390 JUMPI PUSH3 0x38F PUSH3 0xFA JUMP JUMPDEST JUMPDEST PUSH3 0x39C DUP3 SLOAD PUSH3 0x158 JUMP JUMPDEST PUSH3 0x3A9 DUP3 DUP3 DUP6 PUSH3 0x2CE JUMP JUMPDEST PUSH1 0x0 PUSH1 0x20 SWAP1 POP PUSH1 0x1F DUP4 GT PUSH1 0x1 DUP2 EQ PUSH3 0x3E1 JUMPI PUSH1 0x0 DUP5 ISZERO PUSH3 0x3CC JUMPI DUP3 DUP8 ADD MLOAD SWAP1 POP JUMPDEST PUSH3 0x3D8 DUP6 DUP3 PUSH3 0x34B JUMP JUMPDEST DUP7 SSTORE POP PUSH3 0x448 JUMP JUMPDEST PUSH1 0x1F NOT DUP5 AND PUSH3 0x3F1 DUP7 PUSH3 0x18D JUMP JUMPDEST PUSH1 0x0 JUMPDEST DUP3 DUP2 LT ISZERO PUSH3 0x41B JUMPI DUP5 DUP10 ADD MLOAD DUP3 SSTORE PUSH1 0x1 DUP3 ADD SWAP2 POP PUSH1 0x20 DUP6 ADD SWAP5 POP PUSH1 0x20 DUP2 ADD SWAP1 POP PUSH3 0x3F4 JUMP JUMPDEST DUP7 DUP4 LT ISZERO PUSH3 0x43B JUMPI DUP5 DUP10 ADD MLOAD PUSH3 0x437 PUSH1 0x1F DUP10 AND DUP3 PUSH3 0x32B JUMP JUMPDEST DUP4 SSTORE POP JUMPDEST PUSH1 0x1 PUSH1 0x2 DUP9 MUL ADD DUP9 SSTORE POP POP POP JUMPDEST POP POP POP POP POP POP JUMP JUMPDEST PUSH1 0x0 PUSH1 0x40 MLOAD SWAP1 POP SWAP1 JUMP JUMPDEST PUSH1 0x0 DUP1 REVERT JUMPDEST PUSH1 0x0 DUP1 REVERT JUMPDEST PUSH1 0x0 DUP1 REVERT JUMPDEST PUSH1 0x0 DUP1 REVERT JUMPDEST PUSH1 0x0 PUSH1 0x1F NOT PUSH1 0x1F DUP4 ADD AND SWAP1 POP SWAP2 SWAP1 POP JUMP JUMPDEST PUSH3 0x48A DUP3 PUSH3 0x46E JUMP JUMPDEST DUP2 ADD DUP2 DUP2 LT PUSH8 0xFFFFFFFFFFFFFFFF DUP3 GT OR ISZERO PUSH3 0x4AC JUMPI PUSH3 0x4AB PUSH3 0xFA JUMP JUMPDEST JUMPDEST DUP1 PUSH1 0x40 MSTORE POP POP POP JUMP JUMPDEST PUSH1 0x0 PUSH3 0x4C1 PUSH3 0x450 JUMP JUMPDEST SWAP1 POP PUSH3 0x4CF DUP3 DUP3 PUSH3 0x47F JUMP JUMPDEST SWAP2 SWAP1 POP JUMP JUMPDEST PUSH1 0x0 PUSH8 0xFFFFFFFFFFFFFFFF DUP3 GT ISZERO PUSH3 0x4F2 JUMPI PUSH3 0x4F1 PUSH3 0xFA JUMP JUMPDEST JUMPDEST PUSH3 0x4FD DUP3 PUSH3 0x46E JUMP JUMPDEST SWAP1 POP PUSH1 0x20 DUP2 ADD SWAP1 POP SWAP2 SWAP1 POP JUMP JUMPDEST PUSH1 0x0 JUMPDEST DUP4 DUP2 LT ISZERO PUSH3 0x52A JUMPI DUP1 DUP3 ADD MLOAD DUP2 DUP5 ADD MSTORE PUSH1 0x20 DUP2 ADD SWAP1 POP PUSH3 0x50D JUMP JUMPDEST PUSH1 0x0 DUP5 DUP5 ADD MSTORE POP POP POP POP JUMP JUMPDEST PUSH1 0x0 PUSH3 0x54D PUSH3 0x547 DUP5 PUSH3 0x4D4 JUMP JUMPDEST PUSH3 0x4B5 JUMP JUMPDEST SWAP1 POP DUP3 DUP2 MSTORE PUSH1 0x20 DUP2 ADD DUP5 DUP5 DUP5 ADD GT ISZERO PUSH3 0x56C JUMPI PUSH3 0x56B PUSH3 0x469 JUMP JUMPDEST JUMPDEST PUSH3 0x579 DUP5 DUP3 DUP6 PUSH3 0x50A JUMP JUMPDEST POP SWAP4 SWAP3 POP POP POP JUMP JUMPDEST PUSH1 0x0 DUP3 PUSH1 0x1F DUP4 ADD SLT PUSH3 0x599 JUMPI PUSH3 0x598 PUSH3 0x464 JUMP JUMPDEST JUMPDEST DUP2 MLOAD PUSH3 0x5AB DUP5 DUP3 PUSH1 0x20 DUP7 ADD PUSH3 0x536 JUMP JUMPDEST SWAP2 POP POP SWAP3 SWAP2 POP POP JUMP JUMPDEST PUSH1 0x0 DUP1 PUSH1 0x40 DUP4 DUP6 SUB SLT ISZERO PUSH3 0x5CE JUMPI PUSH3 0x5CD PUSH3 0x45A JUMP JUMPDEST JUMPDEST PUSH1 0x0 DUP4 ADD MLOAD PUSH8 0xFFFFFFFFFFFFFFFF DUP2 GT ISZERO PUSH3 0x5EF JUMPI PUSH3 0x5EE PUSH3 0x45F JUMP JUMPDEST JUMPDEST PUSH3 0x5FD DUP6 DUP3 DUP7 ADD PUSH3 0x581 JUMP JUMPDEST SWAP3 POP POP PUSH1 0x20 DUP4 ADD MLOAD PUSH8 0xFFFFFFFFFFFFFFFF DUP2 GT ISZERO PUSH3 0x621 JUMPI PUSH3 0x620 PUSH3 0x45F JUMP JUMPDEST JUMPDEST PUSH3 0x62F DUP6 DUP3 DUP7 ADD PUSH3 0x581 JUMP JUMPDEST SWAP2 POP POP SWAP3 POP SWAP3 SWAP1 POP JUMP JUMPDEST PUSH2 0x3994 DUP1 PUSH3 0x649 PUSH1 0x0 CODECOPY PUSH1 0x0 RETURN INVALID PUSH1 0x80 PUSH1 0x40 MSTORE PUSH1 0x4 CALLDATASIZE LT PUSH2 0x166 JUMPI PUSH1 0x0 CALLDATALOAD PUSH1 0xE0 SHR DUP1 PUSH4 0x9485CFED GT PUSH2 0xD1 JUMPI DUP1 PUSH4 0xBCD57D04 GT PUSH2 0x8A JUMPI DUP1 PUSH4 0xD1219684 GT PUSH2 0x64 JUMPI DUP1 PUSH4 0xD1219684 EQ PUSH2 0x574 JUMPI DUP1 PUSH4 0xE67E402C EQ PUSH2 0x5B1 JUMPI DUP1 PUSH4 0xE985E9C5 EQ PUSH2 0x5CD JUMPI DUP1 PUSH4 0xF9EFDE30 EQ PUSH2 0x60A JUMPI PUSH2 0x166 JUMP JUMPDEST DUP1 PUSH4 0xBCD57D04 EQ PUSH2 0x4D1 JUMPI DUP1 PUSH4 0xC87B56DD EQ PUSH2 0x4FA JUMPI DUP1 PUSH4 0xCDC461AD EQ PUSH2 0x537 JUMPI PUSH2 0x166 JUMP JUMPDEST DUP1 PUSH4 0x9485CFED EQ PUSH2 0x3C1 JUMPI DUP1 PUSH4 0x95D89B41 EQ PUSH2 0x3EC JUMPI DUP1 PUSH4 0x9BB11C42 EQ PUSH2 0x417 JUMPI DUP1 PUSH4 0x9CB04AEF EQ PUSH2 0x442 JUMPI DUP1 PUSH4 0xA22CB465 EQ PUSH2 0x47F JUMPI DUP1 PUSH4 0xB88D4FDE EQ PUSH2 0x4A8 JUMPI PUSH2 0x166 JUMP JUMPDEST DUP1 PUSH4 0x3CCFD60B GT PUSH2 0x123 JUMPI DUP1 PUSH4 0x3CCFD60B EQ PUSH2 0x29F JUMPI DUP1 PUSH4 0x3D07BE7B EQ PUSH2 0x2B6 JUMPI DUP1 PUSH4 0x42842E0E EQ PUSH2 0x2F3 JUMPI DUP1 PUSH4 0x6352211E EQ PUSH2 0x31C JUMPI DUP1 PUSH4 0x70A08231 EQ PUSH2 0x359 JUMPI DUP1 PUSH4 0x8DA5CB5B EQ PUSH2 0x396 JUMPI PUSH2 0x166 JUMP JUMPDEST DUP1 PUSH4 0x1FFC9A7 EQ PUSH2 0x16B JUMPI DUP1 PUSH4 0x6FDDE03 EQ PUSH2 0x1A8 JUMPI DUP1 PUSH4 0x81812FC EQ PUSH2 0x1D3 JUMPI DUP1 PUSH4 0x95EA7B3 EQ PUSH2 0x210 JUMPI DUP1 PUSH4 0x23B872DD EQ PUSH2 0x239 JUMPI DUP1 PUSH4 0x38FBF2C6 EQ PUSH2 0x262 JUMPI JUMPDEST PUSH1 0x0 DUP1 REVERT JUMPDEST CALLVALUE DUP1 ISZERO PUSH2 0x177 JUMPI PUSH1 0x0 DUP1 REVERT JUMPDEST POP PUSH2 0x192 PUSH1 0x4 DUP1 CALLDATASIZE SUB DUP2 ADD SWAP1 PUSH2 0x18D SWAP2 SWAP1 PUSH2 0x2471 JUMP JUMPDEST PUSH2 0x635 JUMP JUMPDEST PUSH1 0x40 MLOAD PUSH2 0x19F SWAP2 SWAP1 PUSH2 0x24B9 JUMP JUMPDEST PUSH1 0x40 MLOAD DUP1 SWAP2 SUB SWAP1 RETURN JUMPDEST CALLVALUE DUP1 ISZERO PUSH2 0x1B4 JUMPI PUSH1 0x0 DUP1 REVERT JUMPDEST POP PUSH2 0x1BD PUSH2 0x717 JUMP JUMPDEST PUSH1 0x40 MLOAD PUSH2 0x1CA SWAP2 SWAP1 PUSH2 0x2564 JUMP JUMPDEST PUSH1 0x40 MLOAD DUP1 SWAP2 SUB SWAP1 RETURN JUMPDEST CALLVALUE DUP1 ISZERO PUSH2 0x1DF JUMPI PUSH1 0x0 DUP1 REVERT JUMPDEST POP PUSH2 0x1FA PUSH1 0x4 DUP1 CALLDATASIZE SUB DUP2 ADD SWAP1 PUSH2 0x1F5 SWAP2 SWAP1 PUSH2 0x25BC JUMP JUMPDEST PUSH2 0x7A9 JUMP JUMPDEST PUSH1 0x40 MLOAD PUSH2 0x207 SWAP2 SWAP1 PUSH2 0x262A JUMP JUMPDEST PUSH1 0x40 MLOAD DUP1 SWAP2 SUB SWAP1 RETURN JUMPDEST CALLVALUE DUP1 ISZERO PUSH2 0x21C JUMPI PUSH1 0x0 DUP1 REVERT JUMPDEST POP PUSH2 0x237 PUSH1 0x4 DUP1 CALLDATASIZE SUB DUP2 ADD SWAP1 PUSH2 0x232 SWAP2 SWAP1 PUSH2 0x2671 JUMP JUMPDEST PUSH2 0x7EF JUMP JUMPDEST STOP JUMPDEST CALLVALUE DUP1 ISZERO PUSH2 0x245 JUMPI PUSH1 0x0 DUP1 REVERT JUMPDEST POP PUSH2 0x260 PUSH1 0x4 DUP1 CALLDATASIZE SUB DUP2 ADD SWAP1 PUSH2 0x25B SWAP2 SWAP1 PUSH2 0x26B1 JUMP JUMPDEST PUSH2 0x906 JUMP JUMPDEST STOP JUMPDEST CALLVALUE DUP1 ISZERO PUSH2 0x26E JUMPI PUSH1 0x0 DUP1 REVERT JUMPDEST POP PUSH2 0x289 PUSH1 0x4 DUP1 CALLDATASIZE SUB DUP2 ADD SWAP1 PUSH2 0x284 SWAP2 SWAP1 PUSH2 0x25BC JUMP JUMPDEST PUSH2 0x966 JUMP JUMPDEST PUSH1 0x40 MLOAD PUSH2 0x296 SWAP2 SWAP1 PUSH2 0x27C7 JUMP JUMPDEST PUSH1 0x40 MLOAD DUP1 SWAP2 SUB SWAP1 RETURN JUMPDEST CALLVALUE DUP1 ISZERO PUSH2 0x2AB JUMPI PUSH1 0x0 DUP1 REVERT JUMPDEST POP PUSH2 0x2B4 PUSH2 0xACB JUMP JUMPDEST STOP JUMPDEST CALLVALUE DUP1 ISZERO PUSH2 0x2C2 JUMPI PUSH1 0x0 DUP1 REVERT JUMPDEST POP PUSH2 0x2DD PUSH1 0x4 DUP1 CALLDATASIZE SUB DUP2 ADD SWAP1 PUSH2 0x2D8 SWAP2 SWAP1 PUSH2 0x27E9 JUMP JUMPDEST PUSH2 0xBC0 JUMP JUMPDEST PUSH1 0x40 MLOAD PUSH2 0x2EA SWAP2 SWAP1 PUSH2 0x289B JUMP JUMPDEST PUSH1 0x40 MLOAD DUP1 SWAP2 SUB SWAP1 RETURN JUMPDEST CALLVALUE DUP1 ISZERO PUSH2 0x2FF JUMPI PUSH1 0x0 DUP1 REVERT JUMPDEST POP PUSH2 0x31A PUSH1 0x4 DUP1 CALLDATASIZE SUB DUP2 ADD SWAP1 PUSH2 0x315 SWAP2 SWAP1 PUSH2 0x26B1 JUMP JUMPDEST PUSH2 0xD1F JUMP JUMPDEST STOP JUMPDEST CALLVALUE DUP1 ISZERO PUSH2 0x328 JUMPI PUSH1 0x0 DUP1 REVERT JUMPDEST POP PUSH2 0x343 PUSH1 0x4 DUP1 CALLDATASIZE SUB DUP2 ADD SWAP1 PUSH2 0x33E SWAP2 SWAP1 PUSH2 0x25BC JUMP JUMPDEST PUSH2 0xD3F JUMP JUMPDEST PUSH1 0x40 MLOAD PUSH2 0x350 SWAP2 SWAP1 PUSH2 0x262A JUMP JUMPDEST PUSH1 0x40 MLOAD DUP1 SWAP2 SUB SWAP1 RETURN JUMPDEST CALLVALUE DUP1 ISZERO PUSH2 0x365 JUMPI PUSH1 0x0 DUP1 REVERT JUMPDEST POP PUSH2 0x380 PUSH1 0x4 DUP1 CALLDATASIZE SUB DUP2 ADD SWAP1 PUSH2 0x37B SWAP2 SWAP1 PUSH2 0x27E9 JUMP JUMPDEST PUSH2 0xDC5 JUMP JUMPDEST PUSH1 0x40 MLOAD PUSH2 0x38D SWAP2 SWAP1 PUSH2 0x28CC JUMP JUMPDEST PUSH1 0x40 MLOAD DUP1 SWAP2 SUB SWAP1 RETURN JUMPDEST CALLVALUE DUP1 ISZERO PUSH2 0x3A2 JUMPI PUSH1 0x0 DUP1 REVERT JUMPDEST POP PUSH2 0x3AB PUSH2 0xE7C JUMP JUMPDEST PUSH1 0x40 MLOAD PUSH2 0x3B8 SWAP2 SWAP1 PUSH2 0x262A JUMP JUMPDEST PUSH1 0x40 MLOAD DUP1 SWAP2 SUB SWAP1 RETURN JUMPDEST CALLVALUE DUP1 ISZERO PUSH2 0x3CD JUMPI PUSH1 0x0 DUP1 REVERT JUMPDEST POP PUSH2 0x3D6 PUSH2 0xEA2 JUMP JUMPDEST PUSH1 0x40 MLOAD PUSH2 0x3E3 SWAP2 SWAP1 PUSH2 0x28CC JUMP JUMPDEST PUSH1 0x40 MLOAD DUP1 SWAP2 SUB SWAP1 RETURN JUMPDEST CALLVALUE DUP1 ISZERO PUSH2 0x3F8 JUMPI PUSH1 0x0 DUP1 REVERT JUMPDEST POP PUSH2 0x401 PUSH2 0xEA8 JUMP JUMPDEST PUSH1 0x40 MLOAD PUSH2 0x40E SWAP2 SWAP1 PUSH2 0x2564 JUMP JUMPDEST PUSH1 0x40 MLOAD DUP1 SWAP2 SUB SWAP1 RETURN JUMPDEST CALLVALUE DUP1 ISZERO PUSH2 0x423 JUMPI PUSH1 0x0 DUP1 REVERT JUMPDEST POP PUSH2 0x42C PUSH2 0xF3A JUMP JUMPDEST PUSH1 0x40 MLOAD PUSH2 0x439 SWAP2 SWAP1 PUSH2 0x28CC JUMP JUMPDEST PUSH1 0x40 MLOAD DUP1 SWAP2 SUB SWAP1 RETURN JUMPDEST CALLVALUE DUP1 ISZERO PUSH2 0x44E JUMPI PUSH1 0x0 DUP1 REVERT JUMPDEST POP PUSH2 0x469 PUSH1 0x4 DUP1 CALLDATASIZE SUB DUP2 ADD SWAP1 PUSH2 0x464 SWAP2 SWAP1 PUSH2 0x28E7 JUMP JUMPDEST PUSH2 0xF40 JUMP JUMPDEST PUSH1 0x40 MLOAD PUSH2 0x476 SWAP2 SWAP1 PUSH2 0x24B9 JUMP JUMPDEST PUSH1 0x40 MLOAD DUP1 SWAP2 SUB SWAP1 RETURN JUMPDEST CALLVALUE DUP1 ISZERO PUSH2 0x48B JUMPI PUSH1 0x0 DUP1 REVERT JUMPDEST POP PUSH2 0x4A6 PUSH1 0x4 DUP1 CALLDATASIZE SUB DUP2 ADD SWAP1 PUSH2 0x4A1 SWAP2 SWAP1 PUSH2 0x2953 JUMP JUMPDEST PUSH2 0xF6F JUMP JUMPDEST STOP JUMPDEST CALLVALUE DUP1 ISZERO PUSH2 0x4B4 JUMPI PUSH1 0x0 DUP1 REVERT JUMPDEST POP PUSH2 0x4CF PUSH1 0x4 DUP1 CALLDATASIZE SUB DUP2 ADD SWAP1 PUSH2 0x4CA SWAP2 SWAP1 PUSH2 0x2AC8 JUMP JUMPDEST PUSH2 0xF85 JUMP JUMPDEST STOP JUMPDEST CALLVALUE DUP1 ISZERO PUSH2 0x4DD JUMPI PUSH1 0x0 DUP1 REVERT JUMPDEST POP PUSH2 0x4F8 PUSH1 0x4 DUP1 CALLDATASIZE SUB DUP2 ADD SWAP1 PUSH2 0x4F3 SWAP2 SWAP1 PUSH2 0x2BEC JUMP JUMPDEST PUSH2 0xFE7 JUMP JUMPDEST STOP JUMPDEST CALLVALUE DUP1 ISZERO PUSH2 0x506 JUMPI PUSH1 0x0 DUP1 REVERT JUMPDEST POP PUSH2 0x521 PUSH1 0x4 DUP1 CALLDATASIZE SUB DUP2 ADD SWAP1 PUSH2 0x51C SWAP2 SWAP1 PUSH2 0x25BC JUMP JUMPDEST PUSH2 0x10D9 JUMP JUMPDEST PUSH1 0x40 MLOAD PUSH2 0x52E SWAP2 SWAP1 PUSH2 0x2564 JUMP JUMPDEST PUSH1 0x40 MLOAD DUP1 SWAP2 SUB SWAP1 RETURN JUMPDEST CALLVALUE DUP1 ISZERO PUSH2 0x543 JUMPI PUSH1 0x0 DUP1 REVERT JUMPDEST POP PUSH2 0x55E PUSH1 0x4 DUP1 CALLDATASIZE SUB DUP2 ADD SWAP1 PUSH2 0x559 SWAP2 SWAP1 PUSH2 0x25BC JUMP JUMPDEST PUSH2 0x1141 JUMP JUMPDEST PUSH1 0x40 MLOAD PUSH2 0x56B SWAP2 SWAP1 PUSH2 0x2D26 JUMP JUMPDEST PUSH1 0x40 MLOAD DUP1 SWAP2 SUB SWAP1 RETURN JUMPDEST CALLVALUE DUP1 ISZERO PUSH2 0x580 JUMPI PUSH1 0x0 DUP1 REVERT JUMPDEST POP PUSH2 0x59B PUSH1 0x4 DUP1 CALLDATASIZE SUB DUP2 ADD SWAP1 PUSH2 0x596 SWAP2 SWAP1 PUSH2 0x2D48 JUMP JUMPDEST PUSH2 0x11AC JUMP JUMPDEST PUSH1 0x40 MLOAD PUSH2 0x5A8 SWAP2 SWAP1 PUSH2 0x262A JUMP JUMPDEST PUSH1 0x40 MLOAD DUP1 SWAP2 SUB SWAP1 RETURN JUMPDEST PUSH2 0x5CB PUSH1 0x4 DUP1 CALLDATASIZE SUB DUP2 ADD SWAP1 PUSH2 0x5C6 SWAP2 SWAP1 PUSH2 0x2D88 JUMP JUMPDEST PUSH2 0x11EE JUMP JUMPDEST STOP JUMPDEST CALLVALUE DUP1 ISZERO PUSH2 0x5D9 JUMPI PUSH1 0x0 DUP1 REVERT JUMPDEST POP PUSH2 0x5F4 PUSH1 0x4 DUP1 CALLDATASIZE SUB DUP2 ADD SWAP1 PUSH2 0x5EF SWAP2 SWAP1 PUSH2 0x2DF7 JUMP JUMPDEST PUSH2 0x14A8 JUMP JUMPDEST PUSH1 0x40 MLOAD PUSH2 0x601 SWAP2 SWAP1 PUSH2 0x24B9 JUMP JUMPDEST PUSH1 0x40 MLOAD DUP1 SWAP2 SUB SWAP1 RETURN JUMPDEST CALLVALUE DUP1 ISZERO PUSH2 0x616 JUMPI PUSH1 0x0 DUP1 REVERT JUMPDEST POP PUSH2 0x61F PUSH2 0x153C JUMP JUMPDEST PUSH1 0x40 MLOAD PUSH2 0x62C SWAP2 SWAP1 PUSH2 0x2564 JUMP JUMPDEST PUSH1 0x40 MLOAD DUP1 SWAP2 SUB SWAP1 RETURN JUMPDEST PUSH1 0x0 PUSH32 0x80AC58CD00000000000000000000000000000000000000000000000000000000 PUSH28 0xFFFFFFFFFFFFFFFFFFFFFFFFFFFFFFFFFFFFFFFFFFFFFFFFFFFFFFFF NOT AND DUP3 PUSH28 0xFFFFFFFFFFFFFFFFFFFFFFFFFFFFFFFFFFFFFFFFFFFFFFFFFFFFFFFF NOT AND EQ DUP1 PUSH2 0x700 JUMPI POP PUSH32 0x5B5E139F00000000000000000000000000000000000000000000000000000000 PUSH28 0xFFFFFFFFFFFFFFFFFFFFFFFFFFFFFFFFFFFFFFFFFFFFFFFFFFFFFFFF NOT AND DUP3 PUSH28 0xFFFFFFFFFFFFFFFFFFFFFFFFFFFFFFFFFFFFFFFFFFFFFFFFFFFFFFFF NOT AND EQ JUMPDEST DUP1 PUSH2 0x710 JUMPI POP PUSH2 0x70F DUP3 PUSH2 0x15CA JUMP JUMPDEST JUMPDEST SWAP1 POP SWAP2 SWAP1 POP JUMP JUMPDEST PUSH1 0x60 PUSH1 0x0 DUP1 SLOAD PUSH2 0x726 SWAP1 PUSH2 0x2E66 JUMP JUMPDEST DUP1 PUSH1 0x1F ADD PUSH1 0x20 DUP1 SWAP2 DIV MUL PUSH1 0x20 ADD PUSH1 0x40 MLOAD SWAP1 DUP2 ADD PUSH1 0x40 MSTORE DUP1 SWAP3 SWAP2 SWAP1 DUP2 DUP2 MSTORE PUSH1 0x20 ADD DUP3 DUP1 SLOAD PUSH2 0x752 SWAP1 PUSH2 0x2E66 JUMP JUMPDEST DUP1 ISZERO PUSH2 0x79F JUMPI DUP1 PUSH1 0x1F LT PUSH2 0x774 JUMPI PUSH2 0x100 DUP1 DUP4 SLOAD DIV MUL DUP4 MSTORE SWAP2 PUSH1 0x20 ADD SWAP2 PUSH2 0x79F JUMP JUMPDEST DUP3 ADD SWAP2 SWAP1 PUSH1 0x0 MSTORE PUSH1 0x20 PUSH1 0x0 KECCAK256 SWAP1 JUMPDEST DUP2 SLOAD DUP2 MSTORE SWAP1 PUSH1 0x1 ADD SWAP1 PUSH1 0x20 ADD DUP1 DUP4 GT PUSH2 0x782 JUMPI DUP3 SWAP1 SUB PUSH1 0x1F AND DUP3 ADD SWAP2 JUMPDEST POP POP POP POP POP SWAP1 POP SWAP1 JUMP JUMPDEST PUSH1 0x0 PUSH2 0x7B4 DUP3 PUSH2 0x1634 JUMP JUMPDEST PUSH1 0x4 PUSH1 0x0 DUP4 DUP2 MSTORE PUSH1 0x20 ADD SWAP1 DUP2 MSTORE PUSH1 0x20 ADD PUSH1 0x0 KECCAK256 PUSH1 0x0 SWAP1 SLOAD SWAP1 PUSH2 0x100 EXP SWAP1 DIV PUSH20 0xFFFFFFFFFFFFFFFFFFFFFFFFFFFFFFFFFFFFFFFF AND SWAP1 POP SWAP2 SWAP1 POP JUMP JUMPDEST PUSH1 0x0 PUSH2 0x7FA DUP3 PUSH2 0xD3F JUMP JUMPDEST SWAP1 POP DUP1 PUSH20 0xFFFFFFFFFFFFFFFFFFFFFFFFFFFFFFFFFFFFFFFF AND DUP4 PUSH20 0xFFFFFFFFFFFFFFFFFFFFFFFFFFFFFFFFFFFFFFFF AND SUB PUSH2 0x86A JUMPI PUSH1 0x40 MLOAD PUSH32 0x8C379A000000000000000000000000000000000000000000000000000000000 DUP2 MSTORE PUSH1 0x4 ADD PUSH2 0x861 SWAP1 PUSH2 0x2F09 JUMP JUMPDEST PUSH1 0x40 MLOAD DUP1 SWAP2 SUB SWAP1 REVERT JUMPDEST DUP1 PUSH20 0xFFFFFFFFFFFFFFFFFFFFFFFFFFFFFFFFFFFFFFFF AND PUSH2 0x889 PUSH2 0x167F JUMP JUMPDEST PUSH20 0xFFFFFFFFFFFFFFFFFFFFFFFFFFFFFFFFFFFFFFFF AND EQ DUP1 PUSH2 0x8B8 JUMPI POP PUSH2 0x8B7 DUP2 PUSH2 0x8B2 PUSH2 0x167F JUMP JUMPDEST PUSH2 0x14A8 JUMP JUMPDEST JUMPDEST PUSH2 0x8F7 JUMPI PUSH1 0x40 MLOAD PUSH32 0x8C379A000000000000000000000000000000000000000000000000000000000 DUP2 MSTORE PUSH1 0x4 ADD PUSH2 0x8EE SWAP1 PUSH2 0x2F9B JUMP JUMPDEST PUSH1 0x40 MLOAD DUP1 SWAP2 SUB SWAP1 REVERT JUMPDEST PUSH2 0x901 DUP4 DUP4 PUSH2 0x1687 JUMP JUMPDEST POP POP POP JUMP JUMPDEST PUSH2 0x917 PUSH2 0x911 PUSH2 0x167F JUMP JUMPDEST DUP3 PUSH2 0x1740 JUMP JUMPDEST PUSH2 0x956 JUMPI PUSH1 0x40 MLOAD PUSH32 0x8C379A000000000000000000000000000000000000000000000000000000000 DUP2 MSTORE PUSH1 0x4 ADD PUSH2 0x94D SWAP1 PUSH2 0x302D JUMP JUMPDEST PUSH1 0x40 MLOAD DUP1 SWAP2 SUB SWAP1 REVERT JUMPDEST PUSH2 0x961 DUP4 DUP4 DUP4 PUSH2 0x17D5 JUMP JUMPDEST POP POP POP JUMP JUMPDEST PUSH2 0x96E PUSH2 0x2398 JUMP JUMPDEST PUSH1 0xB PUSH1 0x0 DUP4 DUP2 MSTORE PUSH1 0x20 ADD SWAP1 DUP2 MSTORE PUSH1 0x20 ADD PUSH1 0x0 KECCAK256 PUSH1 0x40 MLOAD DUP1 PUSH1 0x80 ADD PUSH1 0x40 MSTORE SWAP1 DUP2 PUSH1 0x0 DUP3 ADD SLOAD DUP2 MSTORE PUSH1 0x20 ADD PUSH1 0x1 DUP3 ADD DUP1 SLOAD PUSH2 0x9A6 SWAP1 PUSH2 0x2E66 JUMP JUMPDEST DUP1 PUSH1 0x1F ADD PUSH1 0x20 DUP1 SWAP2 DIV MUL PUSH1 0x20 ADD PUSH1 0x40 MLOAD SWAP1 DUP2 ADD PUSH1 0x40 MSTORE DUP1 SWAP3 SWAP2 SWAP1 DUP2 DUP2 MSTORE PUSH1 0x20 ADD DUP3 DUP1 SLOAD PUSH2 0x9D2 SWAP1 PUSH2 0x2E66 JUMP JUMPDEST DUP1 ISZERO PUSH2 0xA1F JUMPI DUP1 PUSH1 0x1F LT PUSH2 0x9F4 JUMPI PUSH2 0x100 DUP1 DUP4 SLOAD DIV MUL DUP4 MSTORE SWAP2 PUSH1 0x20 ADD SWAP2 PUSH2 0xA1F JUMP JUMPDEST DUP3 ADD SWAP2 SWAP1 PUSH1 0x0 MSTORE PUSH1 0x20 PUSH1 0x0 KECCAK256 SWAP1 JUMPDEST DUP2 SLOAD DUP2 MSTORE SWAP1 PUSH1 0x1 ADD SWAP1 PUSH1 0x20 ADD DUP1 DUP4 GT PUSH2 0xA02 JUMPI DUP3 SWAP1 SUB PUSH1 0x1F AND DUP3 ADD SWAP2 JUMPDEST POP POP POP POP POP DUP2 MSTORE PUSH1 0x20 ADD PUSH1 0x2 DUP3 ADD SLOAD DUP2 MSTORE PUSH1 0x20 ADD PUSH1 0x3 DUP3 ADD DUP1 SLOAD PUSH2 0xA42 SWAP1 PUSH2 0x2E66 JUMP JUMPDEST DUP1 PUSH1 0x1F ADD PUSH1 0x20 DUP1 SWAP2 DIV MUL PUSH1 0x20 ADD PUSH1 0x40 MLOAD SWAP1 DUP2 ADD PUSH1 0x40 MSTORE DUP1 SWAP3 SWAP2 SWAP1 DUP2 DUP2 MSTORE PUSH1 0x20 ADD DUP3 DUP1 SLOAD PUSH2 0xA6E SWAP1 PUSH2 0x2E66 JUMP JUMPDEST DUP1 ISZERO PUSH2 0xABB JUMPI DUP1 PUSH1 0x1F LT PUSH2 0xA90 JUMPI PUSH2 0x100 DUP1 DUP4 SLOAD DIV MUL DUP4 MSTORE SWAP2 PUSH1 0x20 ADD SWAP2 PUSH2 0xABB JUMP JUMPDEST DUP3 ADD SWAP2 SWAP1 PUSH1 0x0 MSTORE PUSH1 0x20 PUSH1 0x0 KECCAK256 SWAP1 JUMPDEST DUP2 SLOAD DUP2 MSTORE SWAP1 PUSH1 0x1 ADD SWAP1 PUSH1 0x20 ADD DUP1 DUP4 GT PUSH2 0xA9E JUMPI DUP3 SWAP1 SUB PUSH1 0x1F AND DUP3 ADD SWAP2 JUMPDEST POP POP POP POP POP DUP2 MSTORE POP POP SWAP1 POP SWAP2 SWAP1 POP JUMP JUMPDEST PUSH1 0x6 PUSH1 0x0 SWAP1 SLOAD SWAP1 PUSH2 0x100 EXP SWAP1 DIV PUSH20 0xFFFFFFFFFFFFFFFFFFFFFFFFFFFFFFFFFFFFFFFF AND PUSH20 0xFFFFFFFFFFFFFFFFFFFFFFFFFFFFFFFFFFFFFFFF AND CALLER PUSH20 0xFFFFFFFFFFFFFFFFFFFFFFFFFFFFFFFFFFFFFFFF AND EQ PUSH2 0xB25 JUMPI PUSH1 0x0 DUP1 REVERT JUMPDEST PUSH1 0x0 PUSH1 0x6 PUSH1 0x0 SWAP1 SLOAD SWAP1 PUSH2 0x100 EXP SWAP1 DIV PUSH20 0xFFFFFFFFFFFFFFFFFFFFFFFFFFFFFFFFFFFFFFFF AND PUSH20 0xFFFFFFFFFFFFFFFFFFFFFFFFFFFFFFFFFFFFFFFF AND SELFBALANCE PUSH1 0x40 MLOAD PUSH2 0xB6D SWAP1 PUSH2 0x307E JUMP JUMPDEST PUSH1 0x0 PUSH1 0x40 MLOAD DUP1 DUP4 SUB DUP2 DUP6 DUP8 GAS CALL SWAP3 POP POP POP RETURNDATASIZE DUP1 PUSH1 0x0 DUP2 EQ PUSH2 0xBAA JUMPI PUSH1 0x40 MLOAD SWAP2 POP PUSH1 0x1F NOT PUSH1 0x3F RETURNDATASIZE ADD AND DUP3 ADD PUSH1 0x40 MSTORE RETURNDATASIZE DUP3 MSTORE RETURNDATASIZE PUSH1 0x0 PUSH1 0x20 DUP5 ADD RETURNDATACOPY PUSH2 0xBAF JUMP JUMPDEST PUSH1 0x60 SWAP2 POP JUMPDEST POP POP SWAP1 POP DUP1 PUSH2 0xBBD JUMPI PUSH1 0x0 DUP1 REVERT JUMPDEST POP JUMP JUMPDEST PUSH2 0xBC8 PUSH2 0x23C0 JUMP JUMPDEST PUSH1 0xA PUSH1 0x0 DUP4 PUSH20 0xFFFFFFFFFFFFFFFFFFFFFFFFFFFFFFFFFFFFFFFF AND PUSH20 0xFFFFFFFFFFFFFFFFFFFFFFFFFFFFFFFFFFFFFFFF AND DUP2 MSTORE PUSH1 0x20 ADD SWAP1 DUP2 MSTORE PUSH1 0x20 ADD PUSH1 0x0 KECCAK256 PUSH1 0x40 MLOAD DUP1 PUSH1 0xA0 ADD PUSH1 0x40 MSTORE SWAP1 DUP2 PUSH1 0x0 DUP3 ADD SLOAD DUP2 MSTORE PUSH1 0x20 ADD PUSH1 0x1 DUP3 ADD SLOAD DUP2 MSTORE PUSH1 0x20 ADD PUSH1 0x2 DUP3 ADD PUSH1 0x0 SWAP1 SLOAD SWAP1 PUSH2 0x100 EXP SWAP1 DIV PUSH20 0xFFFFFFFFFFFFFFFFFFFFFFFFFFFFFFFFFFFFFFFF AND PUSH20 0xFFFFFFFFFFFFFFFFFFFFFFFFFFFFFFFFFFFFFFFF AND PUSH20 0xFFFFFFFFFFFFFFFFFFFFFFFFFFFFFFFFFFFFFFFF AND DUP2 MSTORE PUSH1 0x20 ADD PUSH1 0x3 DUP3 ADD SLOAD DUP2 MSTORE PUSH1 0x20 ADD PUSH1 0x4 DUP3 ADD DUP1 SLOAD PUSH2 0xC96 SWAP1 PUSH2 0x2E66 JUMP JUMPDEST DUP1 PUSH1 0x1F ADD PUSH1 0x20 DUP1 SWAP2 DIV MUL PUSH1 0x20 ADD PUSH1 0x40 MLOAD SWAP1 DUP2 ADD PUSH1 0x40 MSTORE DUP1 SWAP3 SWAP2 SWAP1 DUP2 DUP2 MSTORE PUSH1 0x20 ADD DUP3 DUP1 SLOAD PUSH2 0xCC2 SWAP1 PUSH2 0x2E66 JUMP JUMPDEST DUP1 ISZERO PUSH2 0xD0F JUMPI DUP1 PUSH1 0x1F LT PUSH2 0xCE4 JUMPI PUSH2 0x100 DUP1 DUP4 SLOAD DIV MUL DUP4 MSTORE SWAP2 PUSH1 0x20 ADD SWAP2 PUSH2 0xD0F JUMP JUMPDEST DUP3 ADD SWAP2 SWAP1 PUSH1 0x0 MSTORE PUSH1 0x20 PUSH1 0x0 KECCAK256 SWAP1 JUMPDEST DUP2 SLOAD DUP2 MSTORE SWAP1 PUSH1 0x1 ADD SWAP1 PUSH1 0x20 ADD DUP1 DUP4 GT PUSH2 0xCF2 JUMPI DUP3 SWAP1 SUB PUSH1 0x1F AND DUP3 ADD SWAP2 JUMPDEST POP POP POP POP POP DUP2 MSTORE POP POP SWAP1 POP SWAP2 SWAP1 POP JUMP JUMPDEST PUSH2 0xD3A DUP4 DUP4 DUP4 PUSH1 0x40 MLOAD DUP1 PUSH1 0x20 ADD PUSH1 0x40 MSTORE DUP1 PUSH1 0x0 DUP2 MSTORE POP PUSH2 0xF85 JUMP JUMPDEST POP POP POP JUMP JUMPDEST PUSH1 0x0 DUP1 PUSH2 0xD4B DUP4 PUSH2 0x1ACE JUMP JUMPDEST SWAP1 POP PUSH1 0x0 PUSH20 0xFFFFFFFFFFFFFFFFFFFFFFFFFFFFFFFFFFFFFFFF AND DUP2 PUSH20 0xFFFFFFFFFFFFFFFFFFFFFFFFFFFFFFFFFFFFFFFF AND SUB PUSH2 0xDBC JUMPI PUSH1 0x40 MLOAD PUSH32 0x8C379A000000000000000000000000000000000000000000000000000000000 DUP2 MSTORE PUSH1 0x4 ADD PUSH2 0xDB3 SWAP1 PUSH2 0x30DF JUMP JUMPDEST PUSH1 0x40 MLOAD DUP1 SWAP2 SUB SWAP1 REVERT JUMPDEST DUP1 SWAP2 POP POP SWAP2 SWAP1 POP JUMP JUMPDEST PUSH1 0x0 DUP1 PUSH20 0xFFFFFFFFFFFFFFFFFFFFFFFFFFFFFFFFFFFFFFFF AND DUP3 PUSH20 0xFFFFFFFFFFFFFFFFFFFFFFFFFFFFFFFFFFFFFFFF AND SUB PUSH2 0xE35 JUMPI PUSH1 0x40 MLOAD PUSH32 0x8C379A000000000000000000000000000000000000000000000000000000000 DUP2 MSTORE PUSH1 0x4 ADD PUSH2 0xE2C SWAP1 PUSH2 0x3171 JUMP JUMPDEST PUSH1 0x40 MLOAD DUP1 SWAP2 SUB SWAP1 REVERT JUMPDEST PUSH1 0x3 PUSH1 0x0 DUP4 PUSH20 0xFFFFFFFFFFFFFFFFFFFFFFFFFFFFFFFFFFFFFFFF AND PUSH20 0xFFFFFFFFFFFFFFFFFFFFFFFFFFFFFFFFFFFFFFFF AND DUP2 MSTORE PUSH1 0x20 ADD SWAP1 DUP2 MSTORE PUSH1 0x20 ADD PUSH1 0x0 KECCAK256 SLOAD SWAP1 POP SWAP2 SWAP1 POP JUMP JUMPDEST PUSH1 0x6 PUSH1 0x0 SWAP1 SLOAD SWAP1 PUSH2 0x100 EXP SWAP1 DIV PUSH20 0xFFFFFFFFFFFFFFFFFFFFFFFFFFFFFFFFFFFFFFFF AND DUP2 JUMP JUMPDEST PUSH1 0x7 SLOAD DUP2 JUMP JUMPDEST PUSH1 0x60 PUSH1 0x1 DUP1 SLOAD PUSH2 0xEB7 SWAP1 PUSH2 0x2E66 JUMP JUMPDEST DUP1 PUSH1 0x1F ADD PUSH1 0x20 DUP1 SWAP2 DIV MUL PUSH1 0x20 ADD PUSH1 0x40 MLOAD SWAP1 DUP2 ADD PUSH1 0x40 MSTORE DUP1 SWAP3 SWAP2 SWAP1 DUP2 DUP2 MSTORE PUSH1 0x20 ADD DUP3 DUP1 SLOAD PUSH2 0xEE3 SWAP1 PUSH2 0x2E66 JUMP JUMPDEST DUP1 ISZERO PUSH2 0xF30 JUMPI DUP1 PUSH1 0x1F LT PUSH2 0xF05 JUMPI PUSH2 0x100 DUP1 DUP4 SLOAD DIV MUL DUP4 MSTORE SWAP2 PUSH1 0x20 ADD SWAP2 PUSH2 0xF30 JUMP JUMPDEST DUP3 ADD SWAP2 SWAP1 PUSH1 0x0 MSTORE PUSH1 0x20 PUSH1 0x0 KECCAK256 SWAP1 JUMPDEST DUP2 SLOAD DUP2 MSTORE SWAP1 PUSH1 0x1 ADD SWAP1 PUSH1 0x20 ADD DUP1 DUP4 GT PUSH2 0xF13 JUMPI DUP3 SWAP1 SUB PUSH1 0x1F AND DUP3 ADD SWAP2 JUMPDEST POP POP POP POP POP SWAP1 POP SWAP1 JUMP JUMPDEST PUSH1 0x8 SLOAD DUP2 JUMP JUMPDEST PUSH1 0xC PUSH1 0x20 MSTORE DUP2 PUSH1 0x0 MSTORE PUSH1 0x40 PUSH1 0x0 KECCAK256 PUSH1 0x20 MSTORE DUP1 PUSH1 0x0 MSTORE PUSH1 0x40 PUSH1 0x0 KECCAK256 PUSH1 0x0 SWAP2 POP SWAP2 POP SWAP1 SLOAD SWAP1 PUSH2 0x100 EXP SWAP1 DIV PUSH1 0xFF AND DUP2 JUMP JUMPDEST PUSH2 0xF81 PUSH2 0xF7A PUSH2 0x167F JUMP JUMPDEST DUP4 DUP4 PUSH2 0x1B0B JUMP JUMPDEST POP POP JUMP JUMPDEST PUSH2 0xF96 PUSH2 0xF90 PUSH2 0x167F JUMP JUMPDEST DUP4 PUSH2 0x1740 JUMP JUMPDEST PUSH2 0xFD5 JUMPI PUSH1 0x40 MLOAD PUSH32 0x8C379A000000000000000000000000000000000000000000000000000000000 DUP2 MSTORE PUSH1 0x4 ADD PUSH2 0xFCC SWAP1 PUSH2 0x302D JUMP JUMPDEST PUSH1 0x40 MLOAD DUP1 SWAP2 SUB SWAP1 REVERT JUMPDEST PUSH2 0xFE1 DUP5 DUP5 DUP5 DUP5 PUSH2 0x1C77 JUMP JUMPDEST POP POP POP POP JUMP JUMPDEST PUSH1 0x6 PUSH1 0x0 SWAP1 SLOAD SWAP1 PUSH2 0x100 EXP SWAP1 DIV PUSH20 0xFFFFFFFFFFFFFFFFFFFFFFFFFFFFFFFFFFFFFFFF AND PUSH20 0xFFFFFFFFFFFFFFFFFFFFFFFFFFFFFFFFFFFFFFFF AND CALLER PUSH20 0xFFFFFFFFFFFFFFFFFFFFFFFFFFFFFFFFFFFFFFFF AND EQ PUSH2 0x1041 JUMPI PUSH1 0x0 DUP1 REVERT JUMPDEST PUSH1 0x7 PUSH1 0x0 DUP2 SLOAD DUP1 SWAP3 SWAP2 SWAP1 PUSH2 0x1054 SWAP1 PUSH2 0x31C0 JUMP JUMPDEST SWAP2 SWAP1 POP SSTORE POP PUSH1 0x40 MLOAD DUP1 PUSH1 0x80 ADD PUSH1 0x40 MSTORE DUP1 PUSH1 0x7 SLOAD DUP2 MSTORE PUSH1 0x20 ADD DUP5 DUP2 MSTORE PUSH1 0x20 ADD DUP4 DUP2 MSTORE PUSH1 0x20 ADD DUP3 DUP2 MSTORE POP PUSH1 0xB PUSH1 0x0 PUSH1 0x7 SLOAD DUP2 MSTORE PUSH1 0x20 ADD SWAP1 DUP2 MSTORE PUSH1 0x20 ADD PUSH1 0x0 KECCAK256 PUSH1 0x0 DUP3 ADD MLOAD DUP2 PUSH1 0x0 ADD SSTORE PUSH1 0x20 DUP3 ADD MLOAD DUP2 PUSH1 0x1 ADD SWAP1 DUP2 PUSH2 0x10B0 SWAP2 SWAP1 PUSH2 0x33B4 JUMP JUMPDEST POP PUSH1 0x40 DUP3 ADD MLOAD DUP2 PUSH1 0x2 ADD SSTORE PUSH1 0x60 DUP3 ADD MLOAD DUP2 PUSH1 0x3 ADD SWAP1 DUP2 PUSH2 0x10D0 SWAP2 SWAP1 PUSH2 0x33B4 JUMP JUMPDEST POP SWAP1 POP POP POP POP POP JUMP JUMPDEST PUSH1 0x60 PUSH2 0x10E4 DUP3 PUSH2 0x1634 JUMP JUMPDEST PUSH1 0x0 PUSH2 0x10EE PUSH2 0x1CD3 JUMP JUMPDEST SWAP1 POP PUSH1 0x0 DUP2 MLOAD GT PUSH2 0x110E JUMPI PUSH1 0x40 MLOAD DUP1 PUSH1 0x20 ADD PUSH1 0x40 MSTORE DUP1 PUSH1 0x0 DUP2 MSTORE POP PUSH2 0x1139 JUMP JUMPDEST DUP1 PUSH2 0x1118 DUP5 PUSH2 0x1CEA JUMP JUMPDEST PUSH1 0x40 MLOAD PUSH1 0x20 ADD PUSH2 0x1129 SWAP3 SWAP2 SWAP1 PUSH2 0x34C2 JUMP JUMPDEST PUSH1 0x40 MLOAD PUSH1 0x20 DUP2 DUP4 SUB SUB DUP2 MSTORE SWAP1 PUSH1 0x40 MSTORE JUMPDEST SWAP2 POP POP SWAP2 SWAP1 POP JUMP JUMPDEST PUSH1 0x60 PUSH1 0xE PUSH1 0x0 DUP4 DUP2 MSTORE PUSH1 0x20 ADD SWAP1 DUP2 MSTORE PUSH1 0x20 ADD PUSH1 0x0 KECCAK256 DUP1 SLOAD DUP1 PUSH1 0x20 MUL PUSH1 0x20 ADD PUSH1 0x40 MLOAD SWAP1 DUP2 ADD PUSH1 0x40 MSTORE DUP1 SWAP3 SWAP2 SWAP1 DUP2 DUP2 MSTORE PUSH1 0x20 ADD DUP3 DUP1 SLOAD DUP1 ISZERO PUSH2 0x11A0 JUMPI PUSH1 0x20 MUL DUP3 ADD SWAP2 SWAP1 PUSH1 0x0 MSTORE PUSH1 0x20 PUSH1 0x0 KECCAK256 SWAP1 JUMPDEST DUP2 SLOAD DUP2 MSTORE PUSH1 0x20 ADD SWAP1 PUSH1 0x1 ADD SWAP1 DUP1 DUP4 GT PUSH2 0x118C JUMPI JUMPDEST POP POP POP POP POP SWAP1 POP SWAP2 SWAP1 POP JUMP JUMPDEST PUSH1 0xD PUSH1 0x20 MSTORE DUP2 PUSH1 0x0 MSTORE PUSH1 0x40 PUSH1 0x0 KECCAK256 PUSH1 0x20 MSTORE DUP1 PUSH1 0x0 MSTORE PUSH1 0x40 PUSH1 0x0 KECCAK256 PUSH1 0x0 SWAP2 POP SWAP2 POP SWAP1 SLOAD SWAP1 PUSH2 0x100 EXP SWAP1 DIV PUSH20 0xFFFFFFFFFFFFFFFFFFFFFFFFFFFFFFFFFFFFFFFF AND DUP2 JUMP JUMPDEST PUSH1 0x0 DUP4 SUB PUSH2 0x11FB JUMPI PUSH1 0x0 DUP1 REVERT JUMPDEST PUSH1 0x7 SLOAD DUP4 GT ISZERO PUSH2 0x120A JUMPI PUSH1 0x0 DUP1 REVERT JUMPDEST PUSH1 0xB PUSH1 0x0 DUP5 DUP2 MSTORE PUSH1 0x20 ADD SWAP1 DUP2 MSTORE PUSH1 0x20 ADD PUSH1 0x0 KECCAK256 PUSH1 0x2 ADD SLOAD CALLVALUE LT ISZERO PUSH2 0x1263 JUMPI PUSH1 0x40 MLOAD PUSH32 0x8C379A000000000000000000000000000000000000000000000000000000000 DUP2 MSTORE PUSH1 0x4 ADD PUSH2 0x125A SWAP1 PUSH2 0x3532 JUMP JUMPDEST PUSH1 0x40 MLOAD DUP1 SWAP2 SUB SWAP1 REVERT JUMPDEST PUSH1 0x8 PUSH1 0x0 DUP2 SLOAD DUP1 SWAP3 SWAP2 SWAP1 PUSH2 0x1276 SWAP1 PUSH2 0x31C0 JUMP JUMPDEST SWAP2 SWAP1 POP SSTORE POP PUSH1 0x40 MLOAD DUP1 PUSH1 0xA0 ADD PUSH1 0x40 MSTORE DUP1 PUSH1 0x8 SLOAD DUP2 MSTORE PUSH1 0x20 ADD DUP5 DUP2 MSTORE PUSH1 0x20 ADD DUP4 PUSH20 0xFFFFFFFFFFFFFFFFFFFFFFFFFFFFFFFFFFFFFFFF AND DUP2 MSTORE PUSH1 0x20 ADD PUSH1 0xB PUSH1 0x0 DUP7 DUP2 MSTORE PUSH1 0x20 ADD SWAP1 DUP2 MSTORE PUSH1 0x20 ADD PUSH1 0x0 KECCAK256 PUSH1 0x2 ADD SLOAD DUP2 MSTORE PUSH1 0x20 ADD DUP3 DUP2 MSTORE POP PUSH1 0xA PUSH1 0x0 DUP5 PUSH20 0xFFFFFFFFFFFFFFFFFFFFFFFFFFFFFFFFFFFFFFFF AND PUSH20 0xFFFFFFFFFFFFFFFFFFFFFFFFFFFFFFFFFFFFFFFF AND DUP2 MSTORE PUSH1 0x20 ADD SWAP1 DUP2 MSTORE PUSH1 0x20 ADD PUSH1 0x0 KECCAK256 PUSH1 0x0 DUP3 ADD MLOAD DUP2 PUSH1 0x0 ADD SSTORE PUSH1 0x20 DUP3 ADD MLOAD DUP2 PUSH1 0x1 ADD SSTORE PUSH1 0x40 DUP3 ADD MLOAD DUP2 PUSH1 0x2 ADD PUSH1 0x0 PUSH2 0x100 EXP DUP2 SLOAD DUP2 PUSH20 0xFFFFFFFFFFFFFFFFFFFFFFFFFFFFFFFFFFFFFFFF MUL NOT AND SWAP1 DUP4 PUSH20 0xFFFFFFFFFFFFFFFFFFFFFFFFFFFFFFFFFFFFFFFF AND MUL OR SWAP1 SSTORE POP PUSH1 0x60 DUP3 ADD MLOAD DUP2 PUSH1 0x3 ADD SSTORE PUSH1 0x80 DUP3 ADD MLOAD DUP2 PUSH1 0x4 ADD SWAP1 DUP2 PUSH2 0x1389 SWAP2 SWAP1 PUSH2 0x33B4 JUMP JUMPDEST POP SWAP1 POP POP PUSH1 0x1 PUSH1 0xC PUSH1 0x0 DUP6 DUP2 MSTORE PUSH1 0x20 ADD SWAP1 DUP2 MSTORE PUSH1 0x20 ADD PUSH1 0x0 KECCAK256 PUSH1 0x0 CALLER PUSH20 0xFFFFFFFFFFFFFFFFFFFFFFFFFFFFFFFFFFFFFFFF AND PUSH20 0xFFFFFFFFFFFFFFFFFFFFFFFFFFFFFFFFFFFFFFFF AND DUP2 MSTORE PUSH1 0x20 ADD SWAP1 DUP2 MSTORE PUSH1 0x20 ADD PUSH1 0x0 KECCAK256 PUSH1 0x0 PUSH2 0x100 EXP DUP2 SLOAD DUP2 PUSH1 0xFF MUL NOT AND SWAP1 DUP4 ISZERO ISZERO MUL OR SWAP1 SSTORE POP CALLER PUSH1 0xD PUSH1 0x0 DUP6 DUP2 MSTORE PUSH1 0x20 ADD SWAP1 DUP2 MSTORE PUSH1 0x20 ADD PUSH1 0x0 KECCAK256 PUSH1 0x0 PUSH1 0x8 SLOAD DUP2 MSTORE PUSH1 0x20 ADD SWAP1 DUP2 MSTORE PUSH1 0x20 ADD PUSH1 0x0 KECCAK256 PUSH1 0x0 PUSH2 0x100 EXP DUP2 SLOAD DUP2 PUSH20 0xFFFFFFFFFFFFFFFFFFFFFFFFFFFFFFFFFFFFFFFF MUL NOT AND SWAP1 DUP4 PUSH20 0xFFFFFFFFFFFFFFFFFFFFFFFFFFFFFFFFFFFFFFFF AND MUL OR SWAP1 SSTORE POP PUSH1 0xE PUSH1 0x0 DUP5 DUP2 MSTORE PUSH1 0x20 ADD SWAP1 DUP2 MSTORE PUSH1 0x20 ADD PUSH1 0x0 KECCAK256 PUSH1 0x8 SLOAD SWAP1 DUP1 PUSH1 0x1 DUP2 SLOAD ADD DUP1 DUP3 SSTORE DUP1 SWAP2 POP POP PUSH1 0x1 SWAP1 SUB SWAP1 PUSH1 0x0 MSTORE PUSH1 0x20 PUSH1 0x0 KECCAK256 ADD PUSH1 0x0 SWAP1 SWAP2 SWAP1 SWAP2 SWAP1 SWAP2 POP SSTORE PUSH2 0x14A3 CALLER PUSH1 0x8 SLOAD PUSH2 0x1DB8 JUMP JUMPDEST POP POP POP JUMP JUMPDEST PUSH1 0x0 PUSH1 0x5 PUSH1 0x0 DUP5 PUSH20 0xFFFFFFFFFFFFFFFFFFFFFFFFFFFFFFFFFFFFFFFF AND PUSH20 0xFFFFFFFFFFFFFFFFFFFFFFFFFFFFFFFFFFFFFFFF AND DUP2 MSTORE PUSH1 0x20 ADD SWAP1 DUP2 MSTORE PUSH1 0x20 ADD PUSH1 0x0 KECCAK256 PUSH1 0x0 DUP4 PUSH20 0xFFFFFFFFFFFFFFFFFFFFFFFFFFFFFFFFFFFFFFFF AND PUSH20 0xFFFFFFFFFFFFFFFFFFFFFFFFFFFFFFFFFFFFFFFF AND DUP2 MSTORE PUSH1 0x20 ADD SWAP1 DUP2 MSTORE PUSH1 0x20 ADD PUSH1 0x0 KECCAK256 PUSH1 0x0 SWAP1 SLOAD SWAP1 PUSH2 0x100 EXP SWAP1 DIV PUSH1 0xFF AND SWAP1 POP SWAP3 SWAP2 POP POP JUMP JUMPDEST PUSH1 0x9 DUP1 SLOAD PUSH2 0x1549 SWAP1 PUSH2 0x2E66 JUMP JUMPDEST DUP1 PUSH1 0x1F ADD PUSH1 0x20 DUP1 SWAP2 DIV MUL PUSH1 0x20 ADD PUSH1 0x40 MLOAD SWAP1 DUP2 ADD PUSH1 0x40 MSTORE DUP1 SWAP3 SWAP2 SWAP1 DUP2 DUP2 MSTORE PUSH1 0x20 ADD DUP3 DUP1 SLOAD PUSH2 0x1575 SWAP1 PUSH2 0x2E66 JUMP JUMPDEST DUP1 ISZERO PUSH2 0x15C2 JUMPI DUP1 PUSH1 0x1F LT PUSH2 0x1597 JUMPI PUSH2 0x100 DUP1 DUP4 SLOAD DIV MUL DUP4 MSTORE SWAP2 PUSH1 0x20 ADD SWAP2 PUSH2 0x15C2 JUMP JUMPDEST DUP3 ADD SWAP2 SWAP1 PUSH1 0x0 MSTORE PUSH1 0x20 PUSH1 0x0 KECCAK256 SWAP1 JUMPDEST DUP2 SLOAD DUP2 MSTORE SWAP1 PUSH1 0x1 ADD SWAP1 PUSH1 0x20 ADD DUP1 DUP4 GT PUSH2 0x15A5 JUMPI DUP3 SWAP1 SUB PUSH1 0x1F AND DUP3 ADD SWAP2 JUMPDEST POP POP POP POP POP DUP2 JUMP JUMPDEST PUSH1 0x0 PUSH32 0x1FFC9A700000000000000000000000000000000000000000000000000000000 PUSH28 0xFFFFFFFFFFFFFFFFFFFFFFFFFFFFFFFFFFFFFFFFFFFFFFFFFFFFFFFF NOT AND DUP3 PUSH28 0xFFFFFFFFFFFFFFFFFFFFFFFFFFFFFFFFFFFFFFFFFFFFFFFFFFFFFFFF NOT AND EQ SWAP1 POP SWAP2 SWAP1 POP JUMP JUMPDEST PUSH2 0x163D DUP2 PUSH2 0x1DD6 JUMP JUMPDEST PUSH2 0x167C JUMPI PUSH1 0x40 MLOAD PUSH32 0x8C379A000000000000000000000000000000000000000000000000000000000 DUP2 MSTORE PUSH1 0x4 ADD PUSH2 0x1673 SWAP1 PUSH2 0x30DF JUMP JUMPDEST PUSH1 0x40 MLOAD DUP1 SWAP2 SUB SWAP1 REVERT JUMPDEST POP JUMP JUMPDEST PUSH1 0x0 CALLER SWAP1 POP SWAP1 JUMP JUMPDEST DUP2 PUSH1 0x4 PUSH1 0x0 DUP4 DUP2 MSTORE PUSH1 0x20 ADD SWAP1 DUP2 MSTORE PUSH1 0x20 ADD PUSH1 0x0 KECCAK256 PUSH1 0x0 PUSH2 0x100 EXP DUP2 SLOAD DUP2 PUSH20 0xFFFFFFFFFFFFFFFFFFFFFFFFFFFFFFFFFFFFFFFF MUL NOT AND SWAP1 DUP4 PUSH20 0xFFFFFFFFFFFFFFFFFFFFFFFFFFFFFFFFFFFFFFFF AND MUL OR SWAP1 SSTORE POP DUP1 DUP3 PUSH20 0xFFFFFFFFFFFFFFFFFFFFFFFFFFFFFFFFFFFFFFFF AND PUSH2 0x16FA DUP4 PUSH2 0xD3F JUMP JUMPDEST PUSH20 0xFFFFFFFFFFFFFFFFFFFFFFFFFFFFFFFFFFFFFFFF AND PUSH32 0x8C5BE1E5EBEC7D5BD14F71427D1E84F3DD0314C0F7B2291E5B200AC8C7C3B925 PUSH1 0x40 MLOAD PUSH1 0x40 MLOAD DUP1 SWAP2 SUB SWAP1 LOG4 POP POP JUMP JUMPDEST PUSH1 0x0 DUP1 PUSH2 0x174C DUP4 PUSH2 0xD3F JUMP JUMPDEST SWAP1 POP DUP1 PUSH20 0xFFFFFFFFFFFFFFFFFFFFFFFFFFFFFFFFFFFFFFFF AND DUP5 PUSH20 0xFFFFFFFFFFFFFFFFFFFFFFFFFFFFFFFFFFFFFFFF AND EQ DUP1 PUSH2 0x178E JUMPI POP PUSH2 0x178D DUP2 DUP6 PUSH2 0x14A8 JUMP JUMPDEST JUMPDEST DUP1 PUSH2 0x17CC JUMPI POP DUP4 PUSH20 0xFFFFFFFFFFFFFFFFFFFFFFFFFFFFFFFFFFFFFFFF AND PUSH2 0x17B4 DUP5 PUSH2 0x7A9 JUMP JUMPDEST PUSH20 0xFFFFFFFFFFFFFFFFFFFFFFFFFFFFFFFFFFFFFFFF AND EQ JUMPDEST SWAP2 POP POP SWAP3 SWAP2 POP POP JUMP JUMPDEST DUP3 PUSH20 0xFFFFFFFFFFFFFFFFFFFFFFFFFFFFFFFFFFFFFFFF AND PUSH2 0x17F5 DUP3 PUSH2 0xD3F JUMP JUMPDEST PUSH20 0xFFFFFFFFFFFFFFFFFFFFFFFFFFFFFFFFFFFFFFFF AND EQ PUSH2 0x184B JUMPI PUSH1 0x40 MLOAD PUSH32 0x8C379A000000000000000000000000000000000000000000000000000000000 DUP2 MSTORE PUSH1 0x4 ADD PUSH2 0x1842 SWAP1 PUSH2 0x35C4 JUMP JUMPDEST PUSH1 0x40 MLOAD DUP1 SWAP2 SUB SWAP1 REVERT JUMPDEST PUSH1 0x0 PUSH20 0xFFFFFFFFFFFFFFFFFFFFFFFFFFFFFFFFFFFFFFFF AND DUP3 PUSH20 0xFFFFFFFFFFFFFFFFFFFFFFFFFFFFFFFFFFFFFFFF AND SUB PUSH2 0x18BA JUMPI PUSH1 0x40 MLOAD PUSH32 0x8C379A000000000000000000000000000000000000000000000000000000000 DUP2 MSTORE PUSH1 0x4 ADD PUSH2 0x18B1 SWAP1 PUSH2 0x3656 JUMP JUMPDEST PUSH1 0x40 MLOAD DUP1 SWAP2 SUB SWAP1 REVERT JUMPDEST PUSH2 0x18C7 DUP4 DUP4 DUP4 PUSH1 0x1 PUSH2 0x1E17 JUMP JUMPDEST DUP3 PUSH20 0xFFFFFFFFFFFFFFFFFFFFFFFFFFFFFFFFFFFFFFFF AND PUSH2 0x18E7 DUP3 PUSH2 0xD3F JUMP JUMPDEST PUSH20 0xFFFFFFFFFFFFFFFFFFFFFFFFFFFFFFFFFFFFFFFF AND EQ PUSH2 0x193D JUMPI PUSH1 0x40 MLOAD PUSH32 0x8C379A000000000000000000000000000000000000000000000000000000000 DUP2 MSTORE PUSH1 0x4 ADD PUSH2 0x1934 SWAP1 PUSH2 0x35C4 JUMP JUMPDEST PUSH1 0x40 MLOAD DUP1 SWAP2 SUB SWAP1 REVERT JUMPDEST PUSH1 0x4 PUSH1 0x0 DUP3 DUP2 MSTORE PUSH1 0x20 ADD SWAP1 DUP2 MSTORE PUSH1 0x20 ADD PUSH1 0x0 KECCAK256 PUSH1 0x0 PUSH2 0x100 EXP DUP2 SLOAD SWAP1 PUSH20 0xFFFFFFFFFFFFFFFFFFFFFFFFFFFFFFFFFFFFFFFF MUL NOT AND SWAP1 SSTORE PUSH1 0x1 PUSH1 0x3 PUSH1 0x0 DUP6 PUSH20 0xFFFFFFFFFFFFFFFFFFFFFFFFFFFFFFFFFFFFFFFF AND PUSH20 0xFFFFFFFFFFFFFFFFFFFFFFFFFFFFFFFFFFFFFFFF AND DUP2 MSTORE PUSH1 0x20 ADD SWAP1 DUP2 MSTORE PUSH1 0x20 ADD PUSH1 0x0 KECCAK256 PUSH1 0x0 DUP3 DUP3 SLOAD SUB SWAP3 POP POP DUP2 SWAP1 SSTORE POP PUSH1 0x1 PUSH1 0x3 PUSH1 0x0 DUP5 PUSH20 0xFFFFFFFFFFFFFFFFFFFFFFFFFFFFFFFFFFFFFFFF AND PUSH20 0xFFFFFFFFFFFFFFFFFFFFFFFFFFFFFFFFFFFFFFFF AND DUP2 MSTORE PUSH1 0x20 ADD SWAP1 DUP2 MSTORE PUSH1 0x20 ADD PUSH1 0x0 KECCAK256 PUSH1 0x0 DUP3 DUP3 SLOAD ADD SWAP3 POP POP DUP2 SWAP1 SSTORE POP DUP2 PUSH1 0x2 PUSH1 0x0 DUP4 DUP2 MSTORE PUSH1 0x20 ADD SWAP1 DUP2 MSTORE PUSH1 0x20 ADD PUSH1 0x0 KECCAK256 PUSH1 0x0 PUSH2 0x100 EXP DUP2 SLOAD DUP2 PUSH20 0xFFFFFFFFFFFFFFFFFFFFFFFFFFFFFFFFFFFFFFFF MUL NOT AND SWAP1 DUP4 PUSH20 0xFFFFFFFFFFFFFFFFFFFFFFFFFFFFFFFFFFFFFFFF AND MUL OR SWAP1 SSTORE POP DUP1 DUP3 PUSH20 0xFFFFFFFFFFFFFFFFFFFFFFFFFFFFFFFFFFFFFFFF AND DUP5 PUSH20 0xFFFFFFFFFFFFFFFFFFFFFFFFFFFFFFFFFFFFFFFF AND PUSH32 0xDDF252AD1BE2C89B69C2B068FC378DAA952BA7F163C4A11628F55A4DF523B3EF PUSH1 0x40 MLOAD PUSH1 0x40 MLOAD DUP1 SWAP2 SUB SWAP1 LOG4 PUSH2 0x1AC9 DUP4 DUP4 DUP4 PUSH1 0x1 PUSH2 0x1E1D JUMP JUMPDEST POP POP POP JUMP JUMPDEST PUSH1 0x0 PUSH1 0x2 PUSH1 0x0 DUP4 DUP2 MSTORE PUSH1 0x20 ADD SWAP1 DUP2 MSTORE PUSH1 0x20 ADD PUSH1 0x0 KECCAK256 PUSH1 0x0 SWAP1 SLOAD SWAP1 PUSH2 0x100 EXP SWAP1 DIV PUSH20 0xFFFFFFFFFFFFFFFFFFFFFFFFFFFFFFFFFFFFFFFF AND SWAP1 POP SWAP2 SWAP1 POP JUMP JUMPDEST DUP2 PUSH20 0xFFFFFFFFFFFFFFFFFFFFFFFFFFFFFFFFFFFFFFFF AND DUP4 PUSH20 0xFFFFFFFFFFFFFFFFFFFFFFFFFFFFFFFFFFFFFFFF AND SUB PUSH2 0x1B79 JUMPI PUSH1 0x40 MLOAD PUSH32 0x8C379A000000000000000000000000000000000000000000000000000000000 DUP2 MSTORE PUSH1 0x4 ADD PUSH2 0x1B70 SWAP1 PUSH2 0x36C2 JUMP JUMPDEST PUSH1 0x40 MLOAD DUP1 SWAP2 SUB SWAP1 REVERT JUMPDEST DUP1 PUSH1 0x5 PUSH1 0x0 DUP6 PUSH20 0xFFFFFFFFFFFFFFFFFFFFFFFFFFFFFFFFFFFFFFFF AND PUSH20 0xFFFFFFFFFFFFFFFFFFFFFFFFFFFFFFFFFFFFFFFF AND DUP2 MSTORE PUSH1 0x20 ADD SWAP1 DUP2 MSTORE PUSH1 0x20 ADD PUSH1 0x0 KECCAK256 PUSH1 0x0 DUP5 PUSH20 0xFFFFFFFFFFFFFFFFFFFFFFFFFFFFFFFFFFFFFFFF AND PUSH20 0xFFFFFFFFFFFFFFFFFFFFFFFFFFFFFFFFFFFFFFFF AND DUP2 MSTORE PUSH1 0x20 ADD SWAP1 DUP2 MSTORE PUSH1 0x20 ADD PUSH1 0x0 KECCAK256 PUSH1 0x0 PUSH2 0x100 EXP DUP2 SLOAD DUP2 PUSH1 0xFF MUL NOT AND SWAP1 DUP4 ISZERO ISZERO MUL OR SWAP1 SSTORE POP DUP2 PUSH20 0xFFFFFFFFFFFFFFFFFFFFFFFFFFFFFFFFFFFFFFFF AND DUP4 PUSH20 0xFFFFFFFFFFFFFFFFFFFFFFFFFFFFFFFFFFFFFFFF AND PUSH32 0x17307EAB39AB6107E8899845AD3D59BD9653F200F220920489CA2B5937696C31 DUP4 PUSH1 0x40 MLOAD PUSH2 0x1C6A SWAP2 SWAP1 PUSH2 0x24B9 JUMP JUMPDEST PUSH1 0x40 MLOAD DUP1 SWAP2 SUB SWAP1 LOG3 POP POP POP JUMP JUMPDEST PUSH2 0x1C82 DUP5 DUP5 DUP5 PUSH2 0x17D5 JUMP JUMPDEST PUSH2 0x1C8E DUP5 DUP5 DUP5 DUP5 PUSH2 0x1E23 JUMP JUMPDEST PUSH2 0x1CCD JUMPI PUSH1 0x40 MLOAD PUSH32 0x8C379A000000000000000000000000000000000000000000000000000000000 DUP2 MSTORE PUSH1 0x4 ADD PUSH2 0x1CC4 SWAP1 PUSH2 0x3754 JUMP JUMPDEST PUSH1 0x40 MLOAD DUP1 SWAP2 SUB SWAP1 REVERT JUMPDEST POP POP POP POP JUMP JUMPDEST PUSH1 0x60 PUSH1 0x40 MLOAD DUP1 PUSH1 0x20 ADD PUSH1 0x40 MSTORE DUP1 PUSH1 0x0 DUP2 MSTORE POP SWAP1 POP SWAP1 JUMP JUMPDEST PUSH1 0x60 PUSH1 0x0 PUSH1 0x1 PUSH2 0x1CF9 DUP5 PUSH2 0x1FAA JUMP JUMPDEST ADD SWAP1 POP PUSH1 0x0 DUP2 PUSH8 0xFFFFFFFFFFFFFFFF DUP2 GT ISZERO PUSH2 0x1D18 JUMPI PUSH2 0x1D17 PUSH2 0x299D JUMP JUMPDEST JUMPDEST PUSH1 0x40 MLOAD SWAP1 DUP1 DUP3 MSTORE DUP1 PUSH1 0x1F ADD PUSH1 0x1F NOT AND PUSH1 0x20 ADD DUP3 ADD PUSH1 0x40 MSTORE DUP1 ISZERO PUSH2 0x1D4A JUMPI DUP2 PUSH1 0x20 ADD PUSH1 0x1 DUP3 MUL DUP1 CALLDATASIZE DUP4 CALLDATACOPY DUP1 DUP3 ADD SWAP2 POP POP SWAP1 POP JUMPDEST POP SWAP1 POP PUSH1 0x0 DUP3 PUSH1 0x20 ADD DUP3 ADD SWAP1 POP JUMPDEST PUSH1 0x1 ISZERO PUSH2 0x1DAD JUMPI DUP1 DUP1 PUSH1 0x1 SWAP1 SUB SWAP2 POP POP PUSH32 0x3031323334353637383961626364656600000000000000000000000000000000 PUSH1 0xA DUP7 MOD BYTE DUP2 MSTORE8 PUSH1 0xA DUP6 DUP2 PUSH2 0x1DA1 JUMPI PUSH2 0x1DA0 PUSH2 0x3774 JUMP JUMPDEST JUMPDEST DIV SWAP5 POP PUSH1 0x0 DUP6 SUB PUSH2 0x1D58 JUMPI JUMPDEST DUP2 SWAP4 POP POP POP POP SWAP2 SWAP1 POP JUMP JUMPDEST PUSH2 0x1DD2 DUP3 DUP3 PUSH1 0x40 MLOAD DUP1 PUSH1 0x20 ADD PUSH1 0x40 MSTORE DUP1 PUSH1 0x0 DUP2 MSTORE POP PUSH2 0x20FD JUMP JUMPDEST POP POP JUMP JUMPDEST PUSH1 0x0 DUP1 PUSH20 0xFFFFFFFFFFFFFFFFFFFFFFFFFFFFFFFFFFFFFFFF AND PUSH2 0x1DF8 DUP4 PUSH2 0x1ACE JUMP JUMPDEST PUSH20 0xFFFFFFFFFFFFFFFFFFFFFFFFFFFFFFFFFFFFFFFF AND EQ ISZERO SWAP1 POP SWAP2 SWAP1 POP JUMP JUMPDEST POP POP POP POP JUMP JUMPDEST POP POP POP POP JUMP JUMPDEST PUSH1 0x0 PUSH2 0x1E44 DUP5 PUSH20 0xFFFFFFFFFFFFFFFFFFFFFFFFFFFFFFFFFFFFFFFF AND PUSH2 0x2158 JUMP JUMPDEST ISZERO PUSH2 0x1F9D JUMPI DUP4 PUSH20 0xFFFFFFFFFFFFFFFFFFFFFFFFFFFFFFFFFFFFFFFF AND PUSH4 0x150B7A02 PUSH2 0x1E6D PUSH2 0x167F JUMP JUMPDEST DUP8 DUP7 DUP7 PUSH1 0x40 MLOAD DUP6 PUSH4 0xFFFFFFFF AND PUSH1 0xE0 SHL DUP2 MSTORE PUSH1 0x4 ADD PUSH2 0x1E8F SWAP5 SWAP4 SWAP3 SWAP2 SWAP1 PUSH2 0x37F8 JUMP JUMPDEST PUSH1 0x20 PUSH1 0x40 MLOAD DUP1 DUP4 SUB DUP2 PUSH1 0x0 DUP8 GAS CALL SWAP3 POP POP POP DUP1 ISZERO PUSH2 0x1ECB JUMPI POP PUSH1 0x40 MLOAD RETURNDATASIZE PUSH1 0x1F NOT PUSH1 0x1F DUP3 ADD AND DUP3 ADD DUP1 PUSH1 0x40 MSTORE POP DUP2 ADD SWAP1 PUSH2 0x1EC8 SWAP2 SWAP1 PUSH2 0x3859 JUMP JUMPDEST PUSH1 0x1 JUMPDEST PUSH2 0x1F4D JUMPI RETURNDATASIZE DUP1 PUSH1 0x0 DUP2 EQ PUSH2 0x1EFB JUMPI PUSH1 0x40 MLOAD SWAP2 POP PUSH1 0x1F NOT PUSH1 0x3F RETURNDATASIZE ADD AND DUP3 ADD PUSH1 0x40 MSTORE RETURNDATASIZE DUP3 MSTORE RETURNDATASIZE PUSH1 0x0 PUSH1 0x20 DUP5 ADD RETURNDATACOPY PUSH2 0x1F00 JUMP JUMPDEST PUSH1 0x60 SWAP2 POP JUMPDEST POP PUSH1 0x0 DUP2 MLOAD SUB PUSH2 0x1F45 JUMPI PUSH1 0x40 MLOAD PUSH32 0x8C379A000000000000000000000000000000000000000000000000000000000 DUP2 MSTORE PUSH1 0x4 ADD PUSH2 0x1F3C SWAP1 PUSH2 0x3754 JUMP JUMPDEST PUSH1 0x40 MLOAD DUP1 SWAP2 SUB SWAP1 REVERT JUMPDEST DUP1 MLOAD DUP2 PUSH1 0x20 ADD REVERT JUMPDEST PUSH4 0x150B7A02 PUSH1 0xE0 SHL PUSH28 0xFFFFFFFFFFFFFFFFFFFFFFFFFFFFFFFFFFFFFFFFFFFFFFFFFFFFFFFF NOT AND DUP2 PUSH28 0xFFFFFFFFFFFFFFFFFFFFFFFFFFFFFFFFFFFFFFFFFFFFFFFFFFFFFFFF NOT AND EQ SWAP2 POP POP PUSH2 0x1FA2 JUMP JUMPDEST PUSH1 0x1 SWAP1 POP JUMPDEST SWAP5 SWAP4 POP POP POP POP JUMP JUMPDEST PUSH1 0x0 DUP1 PUSH1 0x0 SWAP1 POP PUSH27 0x184F03E93FF9F4DAA797ED6E38ED64BF6A1F010000000000000000 DUP4 LT PUSH2 0x2008 JUMPI PUSH27 0x184F03E93FF9F4DAA797ED6E38ED64BF6A1F010000000000000000 DUP4 DUP2 PUSH2 0x1FFE JUMPI PUSH2 0x1FFD PUSH2 0x3774 JUMP JUMPDEST JUMPDEST DIV SWAP3 POP PUSH1 0x40 DUP2 ADD SWAP1 POP JUMPDEST PUSH14 0x4EE2D6D415B85ACEF8100000000 DUP4 LT PUSH2 0x2045 JUMPI PUSH14 0x4EE2D6D415B85ACEF8100000000 DUP4 DUP2 PUSH2 0x203B JUMPI PUSH2 0x203A PUSH2 0x3774 JUMP JUMPDEST JUMPDEST DIV SWAP3 POP PUSH1 0x20 DUP2 ADD SWAP1 POP JUMPDEST PUSH7 0x2386F26FC10000 DUP4 LT PUSH2 0x2074 JUMPI PUSH7 0x2386F26FC10000 DUP4 DUP2 PUSH2 0x206A JUMPI PUSH2 0x2069 PUSH2 0x3774 JUMP JUMPDEST JUMPDEST DIV SWAP3 POP PUSH1 0x10 DUP2 ADD SWAP1 POP JUMPDEST PUSH4 0x5F5E100 DUP4 LT PUSH2 0x209D JUMPI PUSH4 0x5F5E100 DUP4 DUP2 PUSH2 0x2093 JUMPI PUSH2 0x2092 PUSH2 0x3774 JUMP JUMPDEST JUMPDEST DIV SWAP3 POP PUSH1 0x8 DUP2 ADD SWAP1 POP JUMPDEST PUSH2 0x2710 DUP4 LT PUSH2 0x20C2 JUMPI PUSH2 0x2710 DUP4 DUP2 PUSH2 0x20B8 JUMPI PUSH2 0x20B7 PUSH2 0x3774 JUMP JUMPDEST JUMPDEST DIV SWAP3 POP PUSH1 0x4 DUP2 ADD SWAP1 POP JUMPDEST PUSH1 0x64 DUP4 LT PUSH2 0x20E5 JUMPI PUSH1 0x64 DUP4 DUP2 PUSH2 0x20DB JUMPI PUSH2 0x20DA PUSH2 0x3774 JUMP JUMPDEST JUMPDEST DIV SWAP3 POP PUSH1 0x2 DUP2 ADD SWAP1 POP JUMPDEST PUSH1 0xA DUP4 LT PUSH2 0x20F4 JUMPI PUSH1 0x1 DUP2 ADD SWAP1 POP JUMPDEST DUP1 SWAP2 POP POP SWAP2 SWAP1 POP JUMP JUMPDEST PUSH2 0x2107 DUP4 DUP4 PUSH2 0x217B JUMP JUMPDEST PUSH2 0x2114 PUSH1 0x0 DUP5 DUP5 DUP5 PUSH2 0x1E23 JUMP JUMPDEST PUSH2 0x2153 JUMPI PUSH1 0x40 MLOAD PUSH32 0x8C379A000000000000000000000000000000000000000000000000000000000 DUP2 MSTORE PUSH1 0x4 ADD PUSH2 0x214A SWAP1 PUSH2 0x3754 JUMP JUMPDEST PUSH1 0x40 MLOAD DUP1 SWAP2 SUB SWAP1 REVERT JUMPDEST POP POP POP JUMP JUMPDEST PUSH1 0x0 DUP1 DUP3 PUSH20 0xFFFFFFFFFFFFFFFFFFFFFFFFFFFFFFFFFFFFFFFF AND EXTCODESIZE GT SWAP1 POP SWAP2 SWAP1 POP JUMP JUMPDEST PUSH1 0x0 PUSH20 0xFFFFFFFFFFFFFFFFFFFFFFFFFFFFFFFFFFFFFFFF AND DUP3 PUSH20 0xFFFFFFFFFFFFFFFFFFFFFFFFFFFFFFFFFFFFFFFF AND SUB PUSH2 0x21EA JUMPI PUSH1 0x40 MLOAD PUSH32 0x8C379A000000000000000000000000000000000000000000000000000000000 DUP2 MSTORE PUSH1 0x4 ADD PUSH2 0x21E1 SWAP1 PUSH2 0x38D2 JUMP JUMPDEST PUSH1 0x40 MLOAD DUP1 SWAP2 SUB SWAP1 REVERT JUMPDEST PUSH2 0x21F3 DUP2 PUSH2 0x1DD6 JUMP JUMPDEST ISZERO PUSH2 0x2233 JUMPI PUSH1 0x40 MLOAD PUSH32 0x8C379A000000000000000000000000000000000000000000000000000000000 DUP2 MSTORE PUSH1 0x4 ADD PUSH2 0x222A SWAP1 PUSH2 0x393E JUMP JUMPDEST PUSH1 0x40 MLOAD DUP1 SWAP2 SUB SWAP1 REVERT JUMPDEST PUSH2 0x2241 PUSH1 0x0 DUP4 DUP4 PUSH1 0x1 PUSH2 0x1E17 JUMP JUMPDEST PUSH2 0x224A DUP2 PUSH2 0x1DD6 JUMP JUMPDEST ISZERO PUSH2 0x228A JUMPI PUSH1 0x40 MLOAD PUSH32 0x8C379A000000000000000000000000000000000000000000000000000000000 DUP2 MSTORE PUSH1 0x4 ADD PUSH2 0x2281 SWAP1 PUSH2 0x393E JUMP JUMPDEST PUSH1 0x40 MLOAD DUP1 SWAP2 SUB SWAP1 REVERT JUMPDEST PUSH1 0x1 PUSH1 0x3 PUSH1 0x0 DUP5 PUSH20 0xFFFFFFFFFFFFFFFFFFFFFFFFFFFFFFFFFFFFFFFF AND PUSH20 0xFFFFFFFFFFFFFFFFFFFFFFFFFFFFFFFFFFFFFFFF AND DUP2 MSTORE PUSH1 0x20 ADD SWAP1 DUP2 MSTORE PUSH1 0x20 ADD PUSH1 0x0 KECCAK256 PUSH1 0x0 DUP3 DUP3 SLOAD ADD SWAP3 POP POP DUP2 SWAP1 SSTORE POP DUP2 PUSH1 0x2 PUSH1 0x0 DUP4 DUP2 MSTORE PUSH1 0x20 ADD SWAP1 DUP2 MSTORE PUSH1 0x20 ADD PUSH1 0x0 KECCAK256 PUSH1 0x0 PUSH2 0x100 EXP DUP2 SLOAD DUP2 PUSH20 0xFFFFFFFFFFFFFFFFFFFFFFFFFFFFFFFFFFFFFFFF MUL NOT AND SWAP1 DUP4 PUSH20 0xFFFFFFFFFFFFFFFFFFFFFFFFFFFFFFFFFFFFFFFF AND MUL OR SWAP1 SSTORE POP DUP1 DUP3 PUSH20 0xFFFFFFFFFFFFFFFFFFFFFFFFFFFFFFFFFFFFFFFF AND PUSH1 0x0 PUSH20 0xFFFFFFFFFFFFFFFFFFFFFFFFFFFFFFFFFFFFFFFF AND PUSH32 0xDDF252AD1BE2C89B69C2B068FC378DAA952BA7F163C4A11628F55A4DF523B3EF PUSH1 0x40 MLOAD PUSH1 0x40 MLOAD DUP1 SWAP2 SUB SWAP1 LOG4 PUSH2 0x2394 PUSH1 0x0 DUP4 DUP4 PUSH1 0x1 PUSH2 0x1E1D JUMP JUMPDEST POP POP JUMP JUMPDEST PUSH1 0x40 MLOAD DUP1 PUSH1 0x80 ADD PUSH1 0x40 MSTORE DUP1 PUSH1 0x0 DUP2 MSTORE PUSH1 0x20 ADD PUSH1 0x60 DUP2 MSTORE PUSH1 0x20 ADD PUSH1 0x0 DUP2 MSTORE PUSH1 0x20 ADD PUSH1 0x60 DUP2 MSTORE POP SWAP1 JUMP JUMPDEST PUSH1 0x40 MLOAD DUP1 PUSH1 0xA0 ADD PUSH1 0x40 MSTORE DUP1 PUSH1 0x0 DUP2 MSTORE PUSH1 0x20 ADD PUSH1 0x0 DUP2 MSTORE PUSH1 0x20 ADD PUSH1 0x0 PUSH20 0xFFFFFFFFFFFFFFFFFFFFFFFFFFFFFFFFFFFFFFFF AND DUP2 MSTORE PUSH1 0x20 ADD PUSH1 0x0 DUP2 MSTORE PUSH1 0x20 ADD PUSH1 0x60 DUP2 MSTORE POP SWAP1 JUMP JUMPDEST PUSH1 0x0 PUSH1 0x40 MLOAD SWAP1 POP SWAP1 JUMP JUMPDEST PUSH1 0x0 DUP1 REVERT JUMPDEST PUSH1 0x0 DUP1 REVERT JUMPDEST PUSH1 0x0 PUSH32 0xFFFFFFFF00000000000000000000000000000000000000000000000000000000 DUP3 AND SWAP1 POP SWAP2 SWAP1 POP JUMP JUMPDEST PUSH2 0x244E DUP2 PUSH2 0x2419 JUMP JUMPDEST DUP2 EQ PUSH2 0x2459 JUMPI PUSH1 0x0 DUP1 REVERT JUMPDEST POP JUMP JUMPDEST PUSH1 0x0 DUP2 CALLDATALOAD SWAP1 POP PUSH2 0x246B DUP2 PUSH2 0x2445 JUMP JUMPDEST SWAP3 SWAP2 POP POP JUMP JUMPDEST PUSH1 0x0 PUSH1 0x20 DUP3 DUP5 SUB SLT ISZERO PUSH2 0x2487 JUMPI PUSH2 0x2486 PUSH2 0x240F JUMP JUMPDEST JUMPDEST PUSH1 0x0 PUSH2 0x2495 DUP5 DUP3 DUP6 ADD PUSH2 0x245C JUMP JUMPDEST SWAP2 POP POP SWAP3 SWAP2 POP POP JUMP JUMPDEST PUSH1 0x0 DUP2 ISZERO ISZERO SWAP1 POP SWAP2 SWAP1 POP JUMP JUMPDEST PUSH2 0x24B3 DUP2 PUSH2 0x249E JUMP JUMPDEST DUP3 MSTORE POP POP JUMP JUMPDEST PUSH1 0x0 PUSH1 0x20 DUP3 ADD SWAP1 POP PUSH2 0x24CE PUSH1 0x0 DUP4 ADD DUP5 PUSH2 0x24AA JUMP JUMPDEST SWAP3 SWAP2 POP POP JUMP JUMPDEST PUSH1 0x0 DUP2 MLOAD SWAP1 POP SWAP2 SWAP1 POP JUMP JUMPDEST PUSH1 0x0 DUP3 DUP3 MSTORE PUSH1 0x20 DUP3 ADD SWAP1 POP SWAP3 SWAP2 POP POP JUMP JUMPDEST PUSH1 0x0 JUMPDEST DUP4 DUP2 LT ISZERO PUSH2 0x250E JUMPI DUP1 DUP3 ADD MLOAD DUP2 DUP5 ADD MSTORE PUSH1 0x20 DUP2 ADD SWAP1 POP PUSH2 0x24F3 JUMP JUMPDEST PUSH1 0x0 DUP5 DUP5 ADD MSTORE POP POP POP POP JUMP JUMPDEST PUSH1 0x0 PUSH1 0x1F NOT PUSH1 0x1F DUP4 ADD AND SWAP1 POP SWAP2 SWAP1 POP JUMP JUMPDEST PUSH1 0x0 PUSH2 0x2536 DUP3 PUSH2 0x24D4 JUMP JUMPDEST PUSH2 0x2540 DUP2 DUP6 PUSH2 0x24DF JUMP JUMPDEST SWAP4 POP PUSH2 0x2550 DUP2 DUP6 PUSH1 0x20 DUP7 ADD PUSH2 0x24F0 JUMP JUMPDEST PUSH2 0x2559 DUP2 PUSH2 0x251A JUMP JUMPDEST DUP5 ADD SWAP2 POP POP SWAP3 SWAP2 POP POP JUMP JUMPDEST PUSH1 0x0 PUSH1 0x20 DUP3 ADD SWAP1 POP DUP2 DUP2 SUB PUSH1 0x0 DUP4 ADD MSTORE PUSH2 0x257E DUP2 DUP5 PUSH2 0x252B JUMP JUMPDEST SWAP1 POP SWAP3 SWAP2 POP POP JUMP JUMPDEST PUSH1 0x0 DUP2 SWAP1 POP SWAP2 SWAP1 POP JUMP JUMPDEST PUSH2 0x2599 DUP2 PUSH2 0x2586 JUMP JUMPDEST DUP2 EQ PUSH2 0x25A4 JUMPI PUSH1 0x0 DUP1 REVERT JUMPDEST POP JUMP JUMPDEST PUSH1 0x0 DUP2 CALLDATALOAD SWAP1 POP PUSH2 0x25B6 DUP2 PUSH2 0x2590 JUMP JUMPDEST SWAP3 SWAP2 POP POP JUMP JUMPDEST PUSH1 0x0 PUSH1 0x20 DUP3 DUP5 SUB SLT ISZERO PUSH2 0x25D2 JUMPI PUSH2 0x25D1 PUSH2 0x240F JUMP JUMPDEST JUMPDEST PUSH1 0x0 PUSH2 0x25E0 DUP5 DUP3 DUP6 ADD PUSH2 0x25A7 JUMP JUMPDEST SWAP2 POP POP SWAP3 SWAP2 POP POP JUMP JUMPDEST PUSH1 0x0 PUSH20 0xFFFFFFFFFFFFFFFFFFFFFFFFFFFFFFFFFFFFFFFF DUP3 AND SWAP1 POP SWAP2 SWAP1 POP JUMP JUMPDEST PUSH1 0x0 PUSH2 0x2614 DUP3 PUSH2 0x25E9 JUMP JUMPDEST SWAP1 POP SWAP2 SWAP1 POP JUMP JUMPDEST PUSH2 0x2624 DUP2 PUSH2 0x2609 JUMP JUMPDEST DUP3 MSTORE POP POP JUMP JUMPDEST PUSH1 0x0 PUSH1 0x20 DUP3 ADD SWAP1 POP PUSH2 0x263F PUSH1 0x0 DUP4 ADD DUP5 PUSH2 0x261B JUMP JUMPDEST SWAP3 SWAP2 POP POP JUMP JUMPDEST PUSH2 0x264E DUP2 PUSH2 0x2609 JUMP JUMPDEST DUP2 EQ PUSH2 0x2659 JUMPI PUSH1 0x0 DUP1 REVERT JUMPDEST POP JUMP JUMPDEST PUSH1 0x0 DUP2 CALLDATALOAD SWAP1 POP PUSH2 0x266B DUP2 PUSH2 0x2645 JUMP JUMPDEST SWAP3 SWAP2 POP POP JUMP JUMPDEST PUSH1 0x0 DUP1 PUSH1 0x40 DUP4 DUP6 SUB SLT ISZERO PUSH2 0x2688 JUMPI PUSH2 0x2687 PUSH2 0x240F JUMP JUMPDEST JUMPDEST PUSH1 0x0 PUSH2 0x2696 DUP6 DUP3 DUP7 ADD PUSH2 0x265C JUMP JUMPDEST SWAP3 POP POP PUSH1 0x20 PUSH2 0x26A7 DUP6 DUP3 DUP7 ADD PUSH2 0x25A7 JUMP JUMPDEST SWAP2 POP POP SWAP3 POP SWAP3 SWAP1 POP JUMP JUMPDEST PUSH1 0x0 DUP1 PUSH1 0x0 PUSH1 0x60 DUP5 DUP7 SUB SLT ISZERO PUSH2 0x26CA JUMPI PUSH2 0x26C9 PUSH2 0x240F JUMP JUMPDEST JUMPDEST PUSH1 0x0 PUSH2 0x26D8 DUP7 DUP3 DUP8 ADD PUSH2 0x265C JUMP JUMPDEST SWAP4 POP POP PUSH1 0x20 PUSH2 0x26E9 DUP7 DUP3 DUP8 ADD PUSH2 0x265C JUMP JUMPDEST SWAP3 POP POP PUSH1 0x40 PUSH2 0x26FA DUP7 DUP3 DUP8 ADD PUSH2 0x25A7 JUMP JUMPDEST SWAP2 POP POP SWAP3 POP SWAP3 POP SWAP3 JUMP JUMPDEST PUSH2 0x270D DUP2 PUSH2 0x2586 JUMP JUMPDEST DUP3 MSTORE POP POP JUMP JUMPDEST PUSH1 0x0 DUP3 DUP3 MSTORE PUSH1 0x20 DUP3 ADD SWAP1 POP SWAP3 SWAP2 POP POP JUMP JUMPDEST PUSH1 0x0 PUSH2 0x272F DUP3 PUSH2 0x24D4 JUMP JUMPDEST PUSH2 0x2739 DUP2 DUP6 PUSH2 0x2713 JUMP JUMPDEST SWAP4 POP PUSH2 0x2749 DUP2 DUP6 PUSH1 0x20 DUP7 ADD PUSH2 0x24F0 JUMP JUMPDEST PUSH2 0x2752 DUP2 PUSH2 0x251A JUMP JUMPDEST DUP5 ADD SWAP2 POP POP SWAP3 SWAP2 POP POP JUMP JUMPDEST PUSH1 0x0 PUSH1 0x80 DUP4 ADD PUSH1 0x0 DUP4 ADD MLOAD PUSH2 0x2775 PUSH1 0x0 DUP7 ADD DUP3 PUSH2 0x2704 JUMP JUMPDEST POP PUSH1 0x20 DUP4 ADD MLOAD DUP5 DUP3 SUB PUSH1 0x20 DUP7 ADD MSTORE PUSH2 0x278D DUP3 DUP3 PUSH2 0x2724 JUMP JUMPDEST SWAP2 POP POP PUSH1 0x40 DUP4 ADD MLOAD PUSH2 0x27A2 PUSH1 0x40 DUP7 ADD DUP3 PUSH2 0x2704 JUMP JUMPDEST POP PUSH1 0x60 DUP4 ADD MLOAD DUP5 DUP3 SUB PUSH1 0x60 DUP7 ADD MSTORE PUSH2 0x27BA DUP3 DUP3 PUSH2 0x2724 JUMP JUMPDEST SWAP2 POP POP DUP1 SWAP2 POP POP SWAP3 SWAP2 POP POP JUMP JUMPDEST PUSH1 0x0 PUSH1 0x20 DUP3 ADD SWAP1 POP DUP2 DUP2 SUB PUSH1 0x0 DUP4 ADD MSTORE PUSH2 0x27E1 DUP2 DUP5 PUSH2 0x275D JUMP JUMPDEST SWAP1 POP SWAP3 SWAP2 POP POP JUMP JUMPDEST PUSH1 0x0 PUSH1 0x20 DUP3 DUP5 SUB SLT ISZERO PUSH2 0x27FF JUMPI PUSH2 0x27FE PUSH2 0x240F JUMP JUMPDEST JUMPDEST PUSH1 0x0 PUSH2 0x280D DUP5 DUP3 DUP6 ADD PUSH2 0x265C JUMP JUMPDEST SWAP2 POP POP SWAP3 SWAP2 POP POP JUMP JUMPDEST PUSH2 0x281F DUP2 PUSH2 0x2609 JUMP JUMPDEST DUP3 MSTORE POP POP JUMP JUMPDEST PUSH1 0x0 PUSH1 0xA0 DUP4 ADD PUSH1 0x0 DUP4 ADD MLOAD PUSH2 0x283D PUSH1 0x0 DUP7 ADD DUP3 PUSH2 0x2704 JUMP JUMPDEST POP PUSH1 0x20 DUP4 ADD MLOAD PUSH2 0x2850 PUSH1 0x20 DUP7 ADD DUP3 PUSH2 0x2704 JUMP JUMPDEST POP PUSH1 0x40 DUP4 ADD MLOAD PUSH2 0x2863 PUSH1 0x40 DUP7 ADD DUP3 PUSH2 0x2816 JUMP JUMPDEST POP PUSH1 0x60 DUP4 ADD MLOAD PUSH2 0x2876 PUSH1 0x60 DUP7 ADD DUP3 PUSH2 0x2704 JUMP JUMPDEST POP PUSH1 0x80 DUP4 ADD MLOAD DUP5 DUP3 SUB PUSH1 0x80 DUP7 ADD MSTORE PUSH2 0x288E DUP3 DUP3 PUSH2 0x2724 JUMP JUMPDEST SWAP2 POP POP DUP1 SWAP2 POP POP SWAP3 SWAP2 POP POP JUMP JUMPDEST PUSH1 0x0 PUSH1 0x20 DUP3 ADD SWAP1 POP DUP2 DUP2 SUB PUSH1 0x0 DUP4 ADD MSTORE PUSH2 0x28B5 DUP2 DUP5 PUSH2 0x2825 JUMP JUMPDEST SWAP1 POP SWAP3 SWAP2 POP POP JUMP JUMPDEST PUSH2 0x28C6 DUP2 PUSH2 0x2586 JUMP JUMPDEST DUP3 MSTORE POP POP JUMP JUMPDEST PUSH1 0x0 PUSH1 0x20 DUP3 ADD SWAP1 POP PUSH2 0x28E1 PUSH1 0x0 DUP4 ADD DUP5 PUSH2 0x28BD JUMP JUMPDEST SWAP3 SWAP2 POP POP JUMP JUMPDEST PUSH1 0x0 DUP1 PUSH1 0x40 DUP4 DUP6 SUB SLT ISZERO PUSH2 0x28FE JUMPI PUSH2 0x28FD PUSH2 0x240F JUMP JUMPDEST JUMPDEST PUSH1 0x0 PUSH2 0x290C DUP6 DUP3 DUP7 ADD PUSH2 0x25A7 JUMP JUMPDEST SWAP3 POP POP PUSH1 0x20 PUSH2 0x291D DUP6 DUP3 DUP7 ADD PUSH2 0x265C JUMP JUMPDEST SWAP2 POP POP SWAP3 POP SWAP3 SWAP1 POP JUMP JUMPDEST PUSH2 0x2930 DUP2 PUSH2 0x249E JUMP JUMPDEST DUP2 EQ PUSH2 0x293B JUMPI PUSH1 0x0 DUP1 REVERT JUMPDEST POP JUMP JUMPDEST PUSH1 0x0 DUP2 CALLDATALOAD SWAP1 POP PUSH2 0x294D DUP2 PUSH2 0x2927 JUMP JUMPDEST SWAP3 SWAP2 POP POP JUMP JUMPDEST PUSH1 0x0 DUP1 PUSH1 0x40 DUP4 DUP6 SUB SLT ISZERO PUSH2 0x296A JUMPI PUSH2 0x2969 PUSH2 0x240F JUMP JUMPDEST JUMPDEST PUSH1 0x0 PUSH2 0x2978 DUP6 DUP3 DUP7 ADD PUSH2 0x265C JUMP JUMPDEST SWAP3 POP POP PUSH1 0x20 PUSH2 0x2989 DUP6 DUP3 DUP7 ADD PUSH2 0x293E JUMP JUMPDEST SWAP2 POP POP SWAP3 POP SWAP3 SWAP1 POP JUMP JUMPDEST PUSH1 0x0 DUP1 REVERT JUMPDEST PUSH1 0x0 DUP1 REVERT JUMPDEST PUSH32 0x4E487B7100000000000000000000000000000000000000000000000000000000 PUSH1 0x0 MSTORE PUSH1 0x41 PUSH1 0x4 MSTORE PUSH1 0x24 PUSH1 0x0 REVERT JUMPDEST PUSH2 0x29D5 DUP3 PUSH2 0x251A JUMP JUMPDEST DUP2 ADD DUP2 DUP2 LT PUSH8 0xFFFFFFFFFFFFFFFF DUP3 GT OR ISZERO PUSH2 0x29F4 JUMPI PUSH2 0x29F3 PUSH2 0x299D JUMP JUMPDEST JUMPDEST DUP1 PUSH1 0x40 MSTORE POP POP POP JUMP JUMPDEST PUSH1 0x0 PUSH2 0x2A07 PUSH2 0x2405 JUMP JUMPDEST SWAP1 POP PUSH2 0x2A13 DUP3 DUP3 PUSH2 0x29CC JUMP JUMPDEST SWAP2 SWAP1 POP JUMP JUMPDEST PUSH1 0x0 PUSH8 0xFFFFFFFFFFFFFFFF DUP3 GT ISZERO PUSH2 0x2A33 JUMPI PUSH2 0x2A32 PUSH2 0x299D JUMP JUMPDEST JUMPDEST PUSH2 0x2A3C DUP3 PUSH2 0x251A JUMP JUMPDEST SWAP1 POP PUSH1 0x20 DUP2 ADD SWAP1 POP SWAP2 SWAP1 POP JUMP JUMPDEST DUP3 DUP2 DUP4 CALLDATACOPY PUSH1 0x0 DUP4 DUP4 ADD MSTORE POP POP POP JUMP JUMPDEST PUSH1 0x0 PUSH2 0x2A6B PUSH2 0x2A66 DUP5 PUSH2 0x2A18 JUMP JUMPDEST PUSH2 0x29FD JUMP JUMPDEST SWAP1 POP DUP3 DUP2 MSTORE PUSH1 0x20 DUP2 ADD DUP5 DUP5 DUP5 ADD GT ISZERO PUSH2 0x2A87 JUMPI PUSH2 0x2A86 PUSH2 0x2998 JUMP JUMPDEST JUMPDEST PUSH2 0x2A92 DUP5 DUP3 DUP6 PUSH2 0x2A49 JUMP JUMPDEST POP SWAP4 SWAP3 POP POP POP JUMP JUMPDEST PUSH1 0x0 DUP3 PUSH1 0x1F DUP4 ADD SLT PUSH2 0x2AAF JUMPI PUSH2 0x2AAE PUSH2 0x2993 JUMP JUMPDEST JUMPDEST DUP2 CALLDATALOAD PUSH2 0x2ABF DUP5 DUP3 PUSH1 0x20 DUP7 ADD PUSH2 0x2A58 JUMP JUMPDEST SWAP2 POP POP SWAP3 SWAP2 POP POP JUMP JUMPDEST PUSH1 0x0 DUP1 PUSH1 0x0 DUP1 PUSH1 0x80 DUP6 DUP8 SUB SLT ISZERO PUSH2 0x2AE2 JUMPI PUSH2 0x2AE1 PUSH2 0x240F JUMP JUMPDEST JUMPDEST PUSH1 0x0 PUSH2 0x2AF0 DUP8 DUP3 DUP9 ADD PUSH2 0x265C JUMP JUMPDEST SWAP5 POP POP PUSH1 0x20 PUSH2 0x2B01 DUP8 DUP3 DUP9 ADD PUSH2 0x265C JUMP JUMPDEST SWAP4 POP POP PUSH1 0x40 PUSH2 0x2B12 DUP8 DUP3 DUP9 ADD PUSH2 0x25A7 JUMP JUMPDEST SWAP3 POP POP PUSH1 0x60 DUP6 ADD CALLDATALOAD PUSH8 0xFFFFFFFFFFFFFFFF DUP2 GT ISZERO PUSH2 0x2B33 JUMPI PUSH2 0x2B32 PUSH2 0x2414 JUMP JUMPDEST JUMPDEST PUSH2 0x2B3F DUP8 DUP3 DUP9 ADD PUSH2 0x2A9A JUMP JUMPDEST SWAP2 POP POP SWAP3 SWAP6 SWAP2 SWAP5 POP SWAP3 POP JUMP JUMPDEST PUSH1 0x0 PUSH8 0xFFFFFFFFFFFFFFFF DUP3 GT ISZERO PUSH2 0x2B66 JUMPI PUSH2 0x2B65 PUSH2 0x299D JUMP JUMPDEST JUMPDEST PUSH2 0x2B6F DUP3 PUSH2 0x251A JUMP JUMPDEST SWAP1 POP PUSH1 0x20 DUP2 ADD SWAP1 POP SWAP2 SWAP1 POP JUMP JUMPDEST PUSH1 0x0 PUSH2 0x2B8F PUSH2 0x2B8A DUP5 PUSH2 0x2B4B JUMP JUMPDEST PUSH2 0x29FD JUMP JUMPDEST SWAP1 POP DUP3 DUP2 MSTORE PUSH1 0x20 DUP2 ADD DUP5 DUP5 DUP5 ADD GT ISZERO PUSH2 0x2BAB JUMPI PUSH2 0x2BAA PUSH2 0x2998 JUMP JUMPDEST JUMPDEST PUSH2 0x2BB6 DUP5 DUP3 DUP6 PUSH2 0x2A49 JUMP JUMPDEST POP SWAP4 SWAP3 POP POP POP JUMP JUMPDEST PUSH1 0x0 DUP3 PUSH1 0x1F DUP4 ADD SLT PUSH2 0x2BD3 JUMPI PUSH2 0x2BD2 PUSH2 0x2993 JUMP JUMPDEST JUMPDEST DUP2 CALLDATALOAD PUSH2 0x2BE3 DUP5 DUP3 PUSH1 0x20 DUP7 ADD PUSH2 0x2B7C JUMP JUMPDEST SWAP2 POP POP SWAP3 SWAP2 POP POP JUMP JUMPDEST PUSH1 0x0 DUP1 PUSH1 0x0 PUSH1 0x60 DUP5 DUP7 SUB SLT ISZERO PUSH2 0x2C05 JUMPI PUSH2 0x2C04 PUSH2 0x240F JUMP JUMPDEST JUMPDEST PUSH1 0x0 DUP5 ADD CALLDATALOAD PUSH8 0xFFFFFFFFFFFFFFFF DUP2 GT ISZERO PUSH2 0x2C23 JUMPI PUSH2 0x2C22 PUSH2 0x2414 JUMP JUMPDEST JUMPDEST PUSH2 0x2C2F DUP7 DUP3 DUP8 ADD PUSH2 0x2BBE JUMP JUMPDEST SWAP4 POP POP PUSH1 0x20 PUSH2 0x2C40 DUP7 DUP3 DUP8 ADD PUSH2 0x25A7 JUMP JUMPDEST SWAP3 POP POP PUSH1 0x40 DUP5 ADD CALLDATALOAD PUSH8 0xFFFFFFFFFFFFFFFF DUP2 GT ISZERO PUSH2 0x2C61 JUMPI PUSH2 0x2C60 PUSH2 0x2414 JUMP JUMPDEST JUMPDEST PUSH2 0x2C6D DUP7 DUP3 DUP8 ADD PUSH2 0x2BBE JUMP JUMPDEST SWAP2 POP POP SWAP3 POP SWAP3 POP SWAP3 JUMP JUMPDEST PUSH1 0x0 DUP2 MLOAD SWAP1 POP SWAP2 SWAP1 POP JUMP JUMPDEST PUSH1 0x0 DUP3 DUP3 MSTORE PUSH1 0x20 DUP3 ADD SWAP1 POP SWAP3 SWAP2 POP POP JUMP JUMPDEST PUSH1 0x0 DUP2 SWAP1 POP PUSH1 0x20 DUP3 ADD SWAP1 POP SWAP2 SWAP1 POP JUMP JUMPDEST PUSH1 0x0 PUSH2 0x2CAF DUP4 DUP4 PUSH2 0x2704 JUMP JUMPDEST PUSH1 0x20 DUP4 ADD SWAP1 POP SWAP3 SWAP2 POP POP JUMP JUMPDEST PUSH1 0x0 PUSH1 0x20 DUP3 ADD SWAP1 POP SWAP2 SWAP1 POP JUMP JUMPDEST PUSH1 0x0 PUSH2 0x2CD3 DUP3 PUSH2 0x2C77 JUMP JUMPDEST PUSH2 0x2CDD DUP2 DUP6 PUSH2 0x2C82 JUMP JUMPDEST SWAP4 POP PUSH2 0x2CE8 DUP4 PUSH2 0x2C93 JUMP JUMPDEST DUP1 PUSH1 0x0 JUMPDEST DUP4 DUP2 LT ISZERO PUSH2 0x2D19 JUMPI DUP2 MLOAD PUSH2 0x2D00 DUP9 DUP3 PUSH2 0x2CA3 JUMP JUMPDEST SWAP8 POP PUSH2 0x2D0B DUP4 PUSH2 0x2CBB JUMP JUMPDEST SWAP3 POP POP PUSH1 0x1 DUP2 ADD SWAP1 POP PUSH2 0x2CEC JUMP JUMPDEST POP DUP6 SWAP4 POP POP POP POP SWAP3 SWAP2 POP POP JUMP JUMPDEST PUSH1 0x0 PUSH1 0x20 DUP3 ADD SWAP1 POP DUP2 DUP2 SUB PUSH1 0x0 DUP4 ADD MSTORE PUSH2 0x2D40 DUP2 DUP5 PUSH2 0x2CC8 JUMP JUMPDEST SWAP1 POP SWAP3 SWAP2 POP POP JUMP JUMPDEST PUSH1 0x0 DUP1 PUSH1 0x40 DUP4 DUP6 SUB SLT ISZERO PUSH2 0x2D5F JUMPI PUSH2 0x2D5E PUSH2 0x240F JUMP JUMPDEST JUMPDEST PUSH1 0x0 PUSH2 0x2D6D DUP6 DUP3 DUP7 ADD PUSH2 0x25A7 JUMP JUMPDEST SWAP3 POP POP PUSH1 0x20 PUSH2 0x2D7E DUP6 DUP3 DUP7 ADD PUSH2 0x25A7 JUMP JUMPDEST SWAP2 POP POP SWAP3 POP SWAP3 SWAP1 POP JUMP JUMPDEST PUSH1 0x0 DUP1 PUSH1 0x0 PUSH1 0x60 DUP5 DUP7 SUB SLT ISZERO PUSH2 0x2DA1 JUMPI PUSH2 0x2DA0 PUSH2 0x240F JUMP JUMPDEST JUMPDEST PUSH1 0x0 PUSH2 0x2DAF DUP7 DUP3 DUP8 ADD PUSH2 0x25A7 JUMP JUMPDEST SWAP4 POP POP PUSH1 0x20 PUSH2 0x2DC0 DUP7 DUP3 DUP8 ADD PUSH2 0x265C JUMP JUMPDEST SWAP3 POP POP PUSH1 0x40 DUP5 ADD CALLDATALOAD PUSH8 0xFFFFFFFFFFFFFFFF DUP2 GT ISZERO PUSH2 0x2DE1 JUMPI PUSH2 0x2DE0 PUSH2 0x2414 JUMP JUMPDEST JUMPDEST PUSH2 0x2DED DUP7 DUP3 DUP8 ADD PUSH2 0x2BBE JUMP JUMPDEST SWAP2 POP POP SWAP3 POP SWAP3 POP SWAP3 JUMP JUMPDEST PUSH1 0x0 DUP1 PUSH1 0x40 DUP4 DUP6 SUB SLT ISZERO PUSH2 0x2E0E JUMPI PUSH2 0x2E0D PUSH2 0x240F JUMP JUMPDEST JUMPDEST PUSH1 0x0 PUSH2 0x2E1C DUP6 DUP3 DUP7 ADD PUSH2 0x265C JUMP JUMPDEST SWAP3 POP POP PUSH1 0x20 PUSH2 0x2E2D DUP6 DUP3 DUP7 ADD PUSH2 0x265C JUMP JUMPDEST SWAP2 POP POP SWAP3 POP SWAP3 SWAP1 POP JUMP JUMPDEST PUSH32 0x4E487B7100000000000000000000000000000000000000000000000000000000 PUSH1 0x0 MSTORE PUSH1 0x22 PUSH1 0x4 MSTORE PUSH1 0x24 PUSH1 0x0 REVERT JUMPDEST PUSH1 0x0 PUSH1 0x2 DUP3 DIV SWAP1 POP PUSH1 0x1 DUP3 AND DUP1 PUSH2 0x2E7E JUMPI PUSH1 0x7F DUP3 AND SWAP2 POP JUMPDEST PUSH1 0x20 DUP3 LT DUP2 SUB PUSH2 0x2E91 JUMPI PUSH2 0x2E90 PUSH2 0x2E37 JUMP JUMPDEST JUMPDEST POP SWAP2 SWAP1 POP JUMP JUMPDEST PUSH32 0x4552433732313A20617070726F76616C20746F2063757272656E74206F776E65 PUSH1 0x0 DUP3 ADD MSTORE PUSH32 0x7200000000000000000000000000000000000000000000000000000000000000 PUSH1 0x20 DUP3 ADD MSTORE POP JUMP JUMPDEST PUSH1 0x0 PUSH2 0x2EF3 PUSH1 0x21 DUP4 PUSH2 0x24DF JUMP JUMPDEST SWAP2 POP PUSH2 0x2EFE DUP3 PUSH2 0x2E97 JUMP JUMPDEST PUSH1 0x40 DUP3 ADD SWAP1 POP SWAP2 SWAP1 POP JUMP JUMPDEST PUSH1 0x0 PUSH1 0x20 DUP3 ADD SWAP1 POP DUP2 DUP2 SUB PUSH1 0x0 DUP4 ADD MSTORE PUSH2 0x2F22 DUP2 PUSH2 0x2EE6 JUMP JUMPDEST SWAP1 POP SWAP2 SWAP1 POP JUMP JUMPDEST PUSH32 0x4552433732313A20617070726F76652063616C6C6572206973206E6F7420746F PUSH1 0x0 DUP3 ADD MSTORE PUSH32 0x6B656E206F776E6572206F7220617070726F76656420666F7220616C6C000000 PUSH1 0x20 DUP3 ADD MSTORE POP JUMP JUMPDEST PUSH1 0x0 PUSH2 0x2F85 PUSH1 0x3D DUP4 PUSH2 0x24DF JUMP JUMPDEST SWAP2 POP PUSH2 0x2F90 DUP3 PUSH2 0x2F29 JUMP JUMPDEST PUSH1 0x40 DUP3 ADD SWAP1 POP SWAP2 SWAP1 POP JUMP JUMPDEST PUSH1 0x0 PUSH1 0x20 DUP3 ADD SWAP1 POP DUP2 DUP2 SUB PUSH1 0x0 DUP4 ADD MSTORE PUSH2 0x2FB4 DUP2 PUSH2 0x2F78 JUMP JUMPDEST SWAP1 POP SWAP2 SWAP1 POP JUMP JUMPDEST PUSH32 0x4552433732313A2063616C6C6572206973206E6F7420746F6B656E206F776E65 PUSH1 0x0 DUP3 ADD MSTORE PUSH32 0x72206F7220617070726F76656400000000000000000000000000000000000000 PUSH1 0x20 DUP3 ADD MSTORE POP JUMP JUMPDEST PUSH1 0x0 PUSH2 0x3017 PUSH1 0x2D DUP4 PUSH2 0x24DF JUMP JUMPDEST SWAP2 POP PUSH2 0x3022 DUP3 PUSH2 0x2FBB JUMP JUMPDEST PUSH1 0x40 DUP3 ADD SWAP1 POP SWAP2 SWAP1 POP JUMP JUMPDEST PUSH1 0x0 PUSH1 0x20 DUP3 ADD SWAP1 POP DUP2 DUP2 SUB PUSH1 0x0 DUP4 ADD MSTORE PUSH2 0x3046 DUP2 PUSH2 0x300A JUMP JUMPDEST SWAP1 POP SWAP2 SWAP1 POP JUMP JUMPDEST PUSH1 0x0 DUP2 SWAP1 POP SWAP3 SWAP2 POP POP JUMP JUMPDEST POP JUMP JUMPDEST PUSH1 0x0 PUSH2 0x3068 PUSH1 0x0 DUP4 PUSH2 0x304D JUMP JUMPDEST SWAP2 POP PUSH2 0x3073 DUP3 PUSH2 0x3058 JUMP JUMPDEST PUSH1 0x0 DUP3 ADD SWAP1 POP SWAP2 SWAP1 POP JUMP JUMPDEST PUSH1 0x0 PUSH2 0x3089 DUP3 PUSH2 0x305B JUMP JUMPDEST SWAP2 POP DUP2 SWAP1 POP SWAP2 SWAP1 POP JUMP JUMPDEST PUSH32 0x4552433732313A20696E76616C696420746F6B656E2049440000000000000000 PUSH1 0x0 DUP3 ADD MSTORE POP JUMP JUMPDEST PUSH1 0x0 PUSH2 0x30C9 PUSH1 0x18 DUP4 PUSH2 0x24DF JUMP JUMPDEST SWAP2 POP PUSH2 0x30D4 DUP3 PUSH2 0x3093 JUMP JUMPDEST PUSH1 0x20 DUP3 ADD SWAP1 POP SWAP2 SWAP1 POP JUMP JUMPDEST PUSH1 0x0 PUSH1 0x20 DUP3 ADD SWAP1 POP DUP2 DUP2 SUB PUSH1 0x0 DUP4 ADD MSTORE PUSH2 0x30F8 DUP2 PUSH2 0x30BC JUMP JUMPDEST SWAP1 POP SWAP2 SWAP1 POP JUMP JUMPDEST PUSH32 0x4552433732313A2061646472657373207A65726F206973206E6F742061207661 PUSH1 0x0 DUP3 ADD MSTORE PUSH32 0x6C6964206F776E65720000000000000000000000000000000000000000000000 PUSH1 0x20 DUP3 ADD MSTORE POP JUMP JUMPDEST PUSH1 0x0 PUSH2 0x315B PUSH1 0x29 DUP4 PUSH2 0x24DF JUMP JUMPDEST SWAP2 POP PUSH2 0x3166 DUP3 PUSH2 0x30FF JUMP JUMPDEST PUSH1 0x40 DUP3 ADD SWAP1 POP SWAP2 SWAP1 POP JUMP JUMPDEST PUSH1 0x0 PUSH1 0x20 DUP3 ADD SWAP1 POP DUP2 DUP2 SUB PUSH1 0x0 DUP4 ADD MSTORE PUSH2 0x318A DUP2 PUSH2 0x314E JUMP JUMPDEST SWAP1 POP SWAP2 SWAP1 POP JUMP JUMPDEST PUSH32 0x4E487B7100000000000000000000000000000000000000000000000000000000 PUSH1 0x0 MSTORE PUSH1 0x11 PUSH1 0x4 MSTORE PUSH1 0x24 PUSH1 0x0 REVERT JUMPDEST PUSH1 0x0 PUSH2 0x31CB DUP3 PUSH2 0x2586 JUMP JUMPDEST SWAP2 POP PUSH32 0xFFFFFFFFFFFFFFFFFFFFFFFFFFFFFFFFFFFFFFFFFFFFFFFFFFFFFFFFFFFFFFFF DUP3 SUB PUSH2 0x31FD JUMPI PUSH2 0x31FC PUSH2 0x3191 JUMP JUMPDEST JUMPDEST PUSH1 0x1 DUP3 ADD SWAP1 POP SWAP2 SWAP1 POP JUMP JUMPDEST PUSH1 0x0 DUP2 SWAP1 POP DUP2 PUSH1 0x0 MSTORE PUSH1 0x20 PUSH1 0x0 KECCAK256 SWAP1 POP SWAP2 SWAP1 POP JUMP JUMPDEST PUSH1 0x0 PUSH1 0x20 PUSH1 0x1F DUP4 ADD DIV SWAP1 POP SWAP2 SWAP1 POP JUMP JUMPDEST PUSH1 0x0 DUP3 DUP3 SHL SWAP1 POP SWAP3 SWAP2 POP POP JUMP JUMPDEST PUSH1 0x0 PUSH1 0x8 DUP4 MUL PUSH2 0x326A PUSH32 0xFFFFFFFFFFFFFFFFFFFFFFFFFFFFFFFFFFFFFFFFFFFFFFFFFFFFFFFFFFFFFFFF DUP3 PUSH2 0x322D JUMP JUMPDEST PUSH2 0x3274 DUP7 DUP4 PUSH2 0x322D JUMP JUMPDEST SWAP6 POP DUP1 NOT DUP5 AND SWAP4 POP DUP1 DUP7 AND DUP5 OR SWAP3 POP POP POP SWAP4 SWAP3 POP POP POP JUMP JUMPDEST PUSH1 0x0 DUP2 SWAP1 POP SWAP2 SWAP1 POP JUMP JUMPDEST PUSH1 0x0 PUSH2 0x32B1 PUSH2 0x32AC PUSH2 0x32A7 DUP5 PUSH2 0x2586 JUMP JUMPDEST PUSH2 0x328C JUMP JUMPDEST PUSH2 0x2586 JUMP JUMPDEST SWAP1 POP SWAP2 SWAP1 POP JUMP JUMPDEST PUSH1 0x0 DUP2 SWAP1 POP SWAP2 SWAP1 POP JUMP JUMPDEST PUSH2 0x32CB DUP4 PUSH2 0x3296 JUMP JUMPDEST PUSH2 0x32DF PUSH2 0x32D7 DUP3 PUSH2 0x32B8 JUMP JUMPDEST DUP5 DUP5 SLOAD PUSH2 0x323A JUMP JUMPDEST DUP3 SSTORE POP POP POP POP JUMP JUMPDEST PUSH1 0x0 SWAP1 JUMP JUMPDEST PUSH2 0x32F4 PUSH2 0x32E7 JUMP JUMPDEST PUSH2 0x32FF DUP2 DUP5 DUP5 PUSH2 0x32C2 JUMP JUMPDEST POP POP POP JUMP JUMPDEST JUMPDEST DUP2 DUP2 LT ISZERO PUSH2 0x3323 JUMPI PUSH2 0x3318 PUSH1 0x0 DUP3 PUSH2 0x32EC JUMP JUMPDEST PUSH1 0x1 DUP2 ADD SWAP1 POP PUSH2 0x3305 JUMP JUMPDEST POP POP JUMP JUMPDEST PUSH1 0x1F DUP3 GT ISZERO PUSH2 0x3368 JUMPI PUSH2 0x3339 DUP2 PUSH2 0x3208 JUMP JUMPDEST PUSH2 0x3342 DUP5 PUSH2 0x321D JUMP JUMPDEST DUP2 ADD PUSH1 0x20 DUP6 LT ISZERO PUSH2 0x3351 JUMPI DUP2 SWAP1 POP JUMPDEST PUSH2 0x3365 PUSH2 0x335D DUP6 PUSH2 0x321D JUMP JUMPDEST DUP4 ADD DUP3 PUSH2 0x3304 JUMP JUMPDEST POP POP JUMPDEST POP POP POP JUMP JUMPDEST PUSH1 0x0 DUP3 DUP3 SHR SWAP1 POP SWAP3 SWAP2 POP POP JUMP JUMPDEST PUSH1 0x0 PUSH2 0x338B PUSH1 0x0 NOT DUP5 PUSH1 0x8 MUL PUSH2 0x336D JUMP JUMPDEST NOT DUP1 DUP4 AND SWAP2 POP POP SWAP3 SWAP2 POP POP JUMP JUMPDEST PUSH1 0x0 PUSH2 0x33A4 DUP4 DUP4 PUSH2 0x337A JUMP JUMPDEST SWAP2 POP DUP3 PUSH1 0x2 MUL DUP3 OR SWAP1 POP SWAP3 SWAP2 POP POP JUMP JUMPDEST PUSH2 0x33BD DUP3 PUSH2 0x24D4 JUMP JUMPDEST PUSH8 0xFFFFFFFFFFFFFFFF DUP2 GT ISZERO PUSH2 0x33D6 JUMPI PUSH2 0x33D5 PUSH2 0x299D JUMP JUMPDEST JUMPDEST PUSH2 0x33E0 DUP3 SLOAD PUSH2 0x2E66 JUMP JUMPDEST PUSH2 0x33EB DUP3 DUP3 DUP6 PUSH2 0x3327 JUMP JUMPDEST PUSH1 0x0 PUSH1 0x20 SWAP1 POP PUSH1 0x1F DUP4 GT PUSH1 0x1 DUP2 EQ PUSH2 0x341E JUMPI PUSH1 0x0 DUP5 ISZERO PUSH2 0x340C JUMPI DUP3 DUP8 ADD MLOAD SWAP1 POP JUMPDEST PUSH2 0x3416 DUP6 DUP3 PUSH2 0x3398 JUMP JUMPDEST DUP7 SSTORE POP PUSH2 0x347E JUMP JUMPDEST PUSH1 0x1F NOT DUP5 AND PUSH2 0x342C DUP7 PUSH2 0x3208 JUMP JUMPDEST PUSH1 0x0 JUMPDEST DUP3 DUP2 LT ISZERO PUSH2 0x3454 JUMPI DUP5 DUP10 ADD MLOAD DUP3 SSTORE PUSH1 0x1 DUP3 ADD SWAP2 POP PUSH1 0x20 DUP6 ADD SWAP5 POP PUSH1 0x20 DUP2 ADD SWAP1 POP PUSH2 0x342F JUMP JUMPDEST DUP7 DUP4 LT ISZERO PUSH2 0x3471 JUMPI DUP5 DUP10 ADD MLOAD PUSH2 0x346D PUSH1 0x1F DUP10 AND DUP3 PUSH2 0x337A JUMP JUMPDEST DUP4 SSTORE POP JUMPDEST PUSH1 0x1 PUSH1 0x2 DUP9 MUL ADD DUP9 SSTORE POP POP POP JUMPDEST POP POP POP POP POP POP JUMP JUMPDEST PUSH1 0x0 DUP2 SWAP1 POP SWAP3 SWAP2 POP POP JUMP JUMPDEST PUSH1 0x0 PUSH2 0x349C DUP3 PUSH2 0x24D4 JUMP JUMPDEST PUSH2 0x34A6 DUP2 DUP6 PUSH2 0x3486 JUMP JUMPDEST SWAP4 POP PUSH2 0x34B6 DUP2 DUP6 PUSH1 0x20 DUP7 ADD PUSH2 0x24F0 JUMP JUMPDEST DUP1 DUP5 ADD SWAP2 POP POP SWAP3 SWAP2 POP POP JUMP JUMPDEST PUSH1 0x0 PUSH2 0x34CE DUP3 DUP6 PUSH2 0x3491 JUMP JUMPDEST SWAP2 POP PUSH2 0x34DA DUP3 DUP5 PUSH2 0x3491 JUMP JUMPDEST SWAP2 POP DUP2 SWAP1 POP SWAP4 SWAP3 POP POP POP JUMP JUMPDEST PUSH32 0x496E737566666963656E742062616C616E636500000000000000000000000000 PUSH1 0x0 DUP3 ADD MSTORE POP JUMP JUMPDEST PUSH1 0x0 PUSH2 0x351C PUSH1 0x13 DUP4 PUSH2 0x24DF JUMP JUMPDEST SWAP2 POP PUSH2 0x3527 DUP3 PUSH2 0x34E6 JUMP JUMPDEST PUSH1 0x20 DUP3 ADD SWAP1 POP SWAP2 SWAP1 POP JUMP JUMPDEST PUSH1 0x0 PUSH1 0x20 DUP3 ADD SWAP1 POP DUP2 DUP2 SUB PUSH1 0x0 DUP4 ADD MSTORE PUSH2 0x354B DUP2 PUSH2 0x350F JUMP JUMPDEST SWAP1 POP SWAP2 SWAP1 POP JUMP JUMPDEST PUSH32 0x4552433732313A207472616E736665722066726F6D20696E636F727265637420 PUSH1 0x0 DUP3 ADD MSTORE PUSH32 0x6F776E6572000000000000000000000000000000000000000000000000000000 PUSH1 0x20 DUP3 ADD MSTORE POP JUMP JUMPDEST PUSH1 0x0 PUSH2 0x35AE PUSH1 0x25 DUP4 PUSH2 0x24DF JUMP JUMPDEST SWAP2 POP PUSH2 0x35B9 DUP3 PUSH2 0x3552 JUMP JUMPDEST PUSH1 0x40 DUP3 ADD SWAP1 POP SWAP2 SWAP1 POP JUMP JUMPDEST PUSH1 0x0 PUSH1 0x20 DUP3 ADD SWAP1 POP DUP2 DUP2 SUB PUSH1 0x0 DUP4 ADD MSTORE PUSH2 0x35DD DUP2 PUSH2 0x35A1 JUMP JUMPDEST SWAP1 POP SWAP2 SWAP1 POP JUMP JUMPDEST PUSH32 0x4552433732313A207472616E7366657220746F20746865207A65726F20616464 PUSH1 0x0 DUP3 ADD MSTORE PUSH32 0x7265737300000000000000000000000000000000000000000000000000000000 PUSH1 0x20 DUP3 ADD MSTORE POP JUMP JUMPDEST PUSH1 0x0 PUSH2 0x3640 PUSH1 0x24 DUP4 PUSH2 0x24DF JUMP JUMPDEST SWAP2 POP PUSH2 0x364B DUP3 PUSH2 0x35E4 JUMP JUMPDEST PUSH1 0x40 DUP3 ADD SWAP1 POP SWAP2 SWAP1 POP JUMP JUMPDEST PUSH1 0x0 PUSH1 0x20 DUP3 ADD SWAP1 POP DUP2 DUP2 SUB PUSH1 0x0 DUP4 ADD MSTORE PUSH2 0x366F DUP2 PUSH2 0x3633 JUMP JUMPDEST SWAP1 POP SWAP2 SWAP1 POP JUMP JUMPDEST PUSH32 0x4552433732313A20617070726F766520746F2063616C6C657200000000000000 PUSH1 0x0 DUP3 ADD MSTORE POP JUMP JUMPDEST PUSH1 0x0 PUSH2 0x36AC PUSH1 0x19 DUP4 PUSH2 0x24DF JUMP JUMPDEST SWAP2 POP PUSH2 0x36B7 DUP3 PUSH2 0x3676 JUMP JUMPDEST PUSH1 0x20 DUP3 ADD SWAP1 POP SWAP2 SWAP1 POP JUMP JUMPDEST PUSH1 0x0 PUSH1 0x20 DUP3 ADD SWAP1 POP DUP2 DUP2 SUB PUSH1 0x0 DUP4 ADD MSTORE PUSH2 0x36DB DUP2 PUSH2 0x369F JUMP JUMPDEST SWAP1 POP SWAP2 SWAP1 POP JUMP JUMPDEST PUSH32 0x4552433732313A207472616E7366657220746F206E6F6E204552433732315265 PUSH1 0x0 DUP3 ADD MSTORE PUSH32 0x63656976657220696D706C656D656E7465720000000000000000000000000000 PUSH1 0x20 DUP3 ADD MSTORE POP JUMP JUMPDEST PUSH1 0x0 PUSH2 0x373E PUSH1 0x32 DUP4 PUSH2 0x24DF JUMP JUMPDEST SWAP2 POP PUSH2 0x3749 DUP3 PUSH2 0x36E2 JUMP JUMPDEST PUSH1 0x40 DUP3 ADD SWAP1 POP SWAP2 SWAP1 POP JUMP JUMPDEST PUSH1 0x0 PUSH1 0x20 DUP3 ADD SWAP1 POP DUP2 DUP2 SUB PUSH1 0x0 DUP4 ADD MSTORE PUSH2 0x376D DUP2 PUSH2 0x3731 JUMP JUMPDEST SWAP1 POP SWAP2 SWAP1 POP JUMP JUMPDEST PUSH32 0x4E487B7100000000000000000000000000000000000000000000000000000000 PUSH1 0x0 MSTORE PUSH1 0x12 PUSH1 0x4 MSTORE PUSH1 0x24 PUSH1 0x0 REVERT JUMPDEST PUSH1 0x0 DUP2 MLOAD SWAP1 POP SWAP2 SWAP1 POP JUMP JUMPDEST PUSH1 0x0 DUP3 DUP3 MSTORE PUSH1 0x20 DUP3 ADD SWAP1 POP SWAP3 SWAP2 POP POP JUMP JUMPDEST PUSH1 0x0 PUSH2 0x37CA DUP3 PUSH2 0x37A3 JUMP JUMPDEST PUSH2 0x37D4 DUP2 DUP6 PUSH2 0x37AE JUMP JUMPDEST SWAP4 POP PUSH2 0x37E4 DUP2 DUP6 PUSH1 0x20 DUP7 ADD PUSH2 0x24F0 JUMP JUMPDEST PUSH2 0x37ED DUP2 PUSH2 0x251A JUMP JUMPDEST DUP5 ADD SWAP2 POP POP SWAP3 SWAP2 POP POP JUMP JUMPDEST PUSH1 0x0 PUSH1 0x80 DUP3 ADD SWAP1 POP PUSH2 0x380D PUSH1 0x0 DUP4 ADD DUP8 PUSH2 0x261B JUMP JUMPDEST PUSH2 0x381A PUSH1 0x20 DUP4 ADD DUP7 PUSH2 0x261B JUMP JUMPDEST PUSH2 0x3827 PUSH1 0x40 DUP4 ADD DUP6 PUSH2 0x28BD JUMP JUMPDEST DUP2 DUP2 SUB PUSH1 0x60 DUP4 ADD MSTORE PUSH2 0x3839 DUP2 DUP5 PUSH2 0x37BF JUMP JUMPDEST SWAP1 POP SWAP6 SWAP5 POP POP POP POP POP JUMP JUMPDEST PUSH1 0x0 DUP2 MLOAD SWAP1 POP PUSH2 0x3853 DUP2 PUSH2 0x2445 JUMP JUMPDEST SWAP3 SWAP2 POP POP JUMP JUMPDEST PUSH1 0x0 PUSH1 0x20 DUP3 DUP5 SUB SLT ISZERO PUSH2 0x386F JUMPI PUSH2 0x386E PUSH2 0x240F JUMP JUMPDEST JUMPDEST PUSH1 0x0 PUSH2 0x387D DUP5 DUP3 DUP6 ADD PUSH2 0x3844 JUMP JUMPDEST SWAP2 POP POP SWAP3 SWAP2 POP POP JUMP JUMPDEST PUSH32 0x4552433732313A206D696E7420746F20746865207A65726F2061646472657373 PUSH1 0x0 DUP3 ADD MSTORE POP JUMP JUMPDEST PUSH1 0x0 PUSH2 0x38BC PUSH1 0x20 DUP4 PUSH2 0x24DF JUMP JUMPDEST SWAP2 POP PUSH2 0x38C7 DUP3 PUSH2 0x3886 JUMP JUMPDEST PUSH1 0x20 DUP3 ADD SWAP1 POP SWAP2 SWAP1 POP JUMP JUMPDEST PUSH1 0x0 PUSH1 0x20 DUP3 ADD SWAP1 POP DUP2 DUP2 SUB PUSH1 0x0 DUP4 ADD MSTORE PUSH2 0x38EB DUP2 PUSH2 0x38AF JUMP JUMPDEST SWAP1 POP SWAP2 SWAP1 POP JUMP JUMPDEST PUSH32 0x4552433732313A20746F6B656E20616C7265616479206D696E74656400000000 PUSH1 0x0 DUP3 ADD MSTORE POP JUMP JUMPDEST PUSH1 0x0 PUSH2 0x3928 PUSH1 0x1C DUP4 PUSH2 0x24DF JUMP JUMPDEST SWAP2 POP PUSH2 0x3933 DUP3 PUSH2 0x38F2 JUMP JUMPDEST PUSH1 0x20 DUP3 ADD SWAP1 POP SWAP2 SWAP1 POP JUMP JUMPDEST PUSH1 0x0 PUSH1 0x20 DUP3 ADD SWAP1 POP DUP2 DUP2 SUB PUSH1 0x0 DUP4 ADD MSTORE PUSH2 0x3957 DUP2 PUSH2 0x391B JUMP JUMPDEST SWAP1 POP SWAP2 SWAP1 POP JUMP INVALID LOG2 PUSH5 0x6970667358 0x22 SLT KECCAK256 0x21 PUSH5 0xCC30247A9 0x26 DUP7 0xC4 SWAP9 SUB 0xAE PUSH9 0x45540A2EC65FB9C5C0 PUSH18 0x2F2E0E40AF9E0ACE64736F6C634300081100 CALLER "},"methodIdentifiers":{"MY_CONTRACT()":"f9efde30","approve(address,uint256)":"095ea7b3","balanceOf(address)":"70a08231","getApproved(uint256)":"081812fc","getMembership(uint256)":"38fbf2c6","getMembershipsTaken(uint256)":"cdc461ad","getUserMembership(address)":"3d07be7b","hasBought(uint256,address)":"9cb04aef","isApprovedForAll(address,address)":"e985e9c5","list(string,uint256,string)":"bcd57d04","membershipTaken(uint256,uint256)":"d1219684","membershipTypes()":"9485cfed","mint(uint256,address,string)":"e67e402c","name()":"06fdde03","owner()":"8da5cb5b","ownerOf(uint256)":"6352211e","safeTransferFrom(address,address,uint256)":"42842e0e","safeTransferFrom(address,address,uint256,bytes)":"b88d4fde","setApprovalForAll(address,bool)":"a22cb465","supportsInterface(bytes4)":"01ffc9a7","symbol()":"95d89b41","tokenURI(uint256)":"c87b56dd","totalMemberships()":"9bb11c42","transferFrom(address,address,uint256)":"23b872dd","withdraw()":"3ccfd60b"}}}}}